:100000000C9468050C9485050C9485050C940A33B2
:100010000C9485050C9485050C9485050C94850538
:100020000C9485050C9485050C94722F0C944A3021
:100030000C94F8190C9485050C9485050C94850591
:100040000C9485050C9485050C9485050C94850508
:100050000C9485050C944E2F0C9485050C94850505
:100060000C9485050C9485050C9485050C948505E8
:100070000C9485050C9485050C9485050C948505D8
:100080000C9485050C9485050C9485050C948505C8
:100090000C9485050C9485050C9485050C948505B8
:1000A0000C9485050C9485050C9485050D000E00B7
:1000B000000000AF00AE00000000000000002F00B4
:1000C0000000000700070000123F123F1200242A20
:1000D0007F2A120036091E241B0018262912280028
:1000E000000007000000001E214000000040211E0B
:1000F000000014083E08140008083E08080000002C
:1001000030700000080808080800000030300000C7
:1001100020100C0201001E2925231E0000223F2072
:100120000000223129292600122125251A00181441
:10013000123F10001725252518001E25252518001B
:100140000131090503001A2525251A000629292948
:100150001E00000033330000000033730000081459
:10016000142222001414141414002222141408005F
:100170000201290502003E59555D3E003816111650
:1001800038003F2525251A001E21212112003F217C
:1001900021211E003F25252521003F0909090100D5
:1001A0001E2121291A003F0404043F0000213F21A1
:1001B0000000102020201F003F040C1221003F20CF
:1001C000202020003F0204023F003F020C103F00AD
:1001D0001E2121211E003F09090906001E212911A7
:1001E0002E003F09091926001225252912000101B8
:1001F0003F0101001F2020201F00071820180700C2
:100200000F300C300F0021120C12210003043804AF
:100210000300312925232100007F41410000010214
:100220000C1020000041417F000004020102040084
:10023000404040404000000103040000102A2A2AE8
:100240003C003F2422221C001C22222224001C22CB
:1002500022243F001C2A2A2A0C0000043E05050027
:100260000C5252543E003F080404380000003D0088
:1002700000002040403D00003F080814220000011B
:100280003F2000003E023C023C003E0402023C00D3
:100290001C2222221C007E1422221C001C2222145A
:1002A0007E003E0402020400242A2A2A12000002D0
:1002B0001F2200001E2020103E00061820180600F5
:1002C0000E300C300E002214081422000E5050483C
:1002D0003E0022322A262200080877414100000011
:1002E0007F000000414177080800180408100C0046
:1002F00000000000000000000000000000000000FE
:100300000000C0F0F88C86C6E7FFFFFFFFFFFFFE8E
:10031000FCFCF8E080000000F0F0F00000C0E0F02D
:1003200070700000000000000000000000000000ED
:100330000000000000000000F8F8F80000000000D5
:100340000000000000000000000000000000F8F8BD
:10035000F80000F8F8F8000000000080E07078680D
:100360006C64C7C7C7C7C7C7E73F1F0F3FFFFFFF83
:10037000FFFFFF3F0F000000FFFFFF1E3FFFF3E105
:10038000800000F8FCFE3636363EBCB8000E3EFE5D
:10039000F080F0FE3E0E0000FFFFFF060606FEFEA8
:1003A000FC7000E6F6F63636FEFEFC000000FFFFAD
:1003B000FF0000FFFFFF000000003C7F6360E0C023
:1003C000C0C0C0C0C0C0C0FFFFC06030180F030372
:1003D000030100000000000003030300000003030A
:1003E00003030001030303030303030100707039D7
:1003F0003F1F070100000000010303030303030381
:1004000001000001030303030303010000000303D1
:10041000030000030303001010100000000055004B
:1004200000003E635D5D637F417B77413E00001CC1
:1004300022221C003E0A003E0A00322A3C002628E6
:100440001E001C2A2C0000003F09360000001E215F
:100450002100000000003F0837001E2121001E215E
:1004600021003F090600213F2100222519001E21FD
:1004700021003F0936003F211E00213F21000F309F
:100480000F003E093E003F063F003F2020000501CF
:100490000902A10185020901A10005091901290824
:1004A0001500250195087501810205010930093102
:1004B0001581257F95027508810609381581257FEC
:1004C000950175088106050C0A38021581257F956E
:1004D0000175088106C0C005010980A101850319C5
:1004E000012AB700150126B700950175108100C0DB
:1004F000050C0901A101850419012AA00215012694
:10050000A002950175108100C005010906A1010531
:100510000719E029E7150025019508750181029565
:1005200001750881010507190029FF150026FF0044
:100530009506750881000508190129051500250192
:10054000950575019102950175039101C009023B62
:1005500000020100A0FA09040000010301010009E2
:10056000211101000122440007058103080001094F
:100570000401000103000000092111010001227B98
:10058000000705820320000112010002000000089C
:100590005759000200010102000114034B006500DD
:1005A0007900620061006C006C00330039000000CB
:1005B000100359006F0077006B0065006500730041
:1005C000000004030904000101010101010101010E
:1005D00002020202020202020203030303030303F4
:1005E00003040404040404040505050505060606C1
:1005F0000606070707070708080808090909090A7E
:100600000A0A0B0B0B0C0C0C0D0D0D0E0E0E0F0F22
:100610000F101011111112121313141415151616B0
:100620001717181819191A1A1B1B1C1D1D1E1E1F1F
:100630002020212222232424252626272829292A6E
:100640002B2C2D2D2E2F3031323233343536373896
:10065000393A3B3C3D3E3F40414243444546474892
:10066000494A4C4D4E4F50515354555658595A5B68
:100670005D5E5F616264656668696B6C6D6F707208
:10068000737577787A7B7D7E8082838587888A8C74
:100690008E8F91939596989A9C9EA0A2A3A5A7A9A8
:1006A000ABADAFB1B3B5B7BABCBEC0C2C4C6C9CB9F
:1006B000CDCFD1D4D6D8DBDDDFE2E4E7E9EBEEF055
:1006C000F3F5F8FAFDFF00DA0281FFD9F1DB20A48F
:1006D000A62EAF00A0C0D30000A1C8D30000AED5A5
:1006E00080A81F408D14200014001A000800150077
:1006F0001700000004001600070009000A000000AF
:100700001D001B000600190005000000E300E200C8
:10071000477E2B212C412A43130012000C001800A5
:100720001C00000028470F000E000D000B00000009
:100730002D00370036001000110000003944010080
:10074000010001004A7EE10022022402230221026C
:10075000380000001F02200225022E022E00000099
:10076000350035021E0238020000000000000000C3
:100770000000000000002A003702360230022F027B
:100780003100000033023300497E26022D020000B2
:100790003402340030002F0031020000000001005C
:1007A000010001000000000000003B003C003D0093
:1007B0003E0000001E001F0020002100220000005B
:1007C00000000000000000000000000030013101C6
:1007D0000000E0024B7E2A0043004200410040003E
:1007E0003F00000027002600250024002300000011
:1007F0000000370036003101000000000000010059
:1008000001000100000000000A03457E447E417E95
:1008100000000000E20200000000E100427E000053
:100820000000000000000000437E0000707C727C2D
:10083000717C000000002A00C2001704070415069E
:10084000C1000000467E4F005200510050000000E1
:10085000000000000000000000000000AE000100E9
:1008600001000100407E00000A7E00000000000040
:100870000000000000000000000016090000000059
:1008800000002D082E08AA00A9000000487E0000E4
:100890000000000000000000000000000000000058
:1008A0000000000000000000000000000000000048
:1008B0000000000000000000000000000000010037
:1008C0000100010000000000000000000000000026
:1008D00000000000E1001D080608190809080000D2
:1008E0000000000000000000000000000000000008
:1008F000000000000000000000000000D300000025
:10090000C100000028002652D200D10000000000E3
:1009100000000000D500D4000000000039000000F5
:100920000000000065520000000000000000000010
:1009300000000000000000000000000000000000B7
:1009400000000000000000000000000000000000A7
:100950000000000000000000000000000000000097
:1009600000000000000000000E7E0D7E0F7E0000E3
:100970000000000000000000000000000000000077
:100980000000000000000000000000000000000067
:100990000000000000001D080608190809080000F2
:1009A0000000000000000000000000000000000047
:1009B0000000000000000000000000000000000037
:1009C0000000000000000000000000000000000027
:1009D0000000000000000000000000000000000017
:1009E00000000000000000006162636465666768E3
:1009F000696A6B6C6D6E6F707172737475767778EF
:100A0000797A3132333435363738393052454254B9
:100A10005F2D3D5B5D5C233B27602C2E2F0000008B
:100A200000000000000000000000000000000000C6
:100A300000000000000000000000000000000000B6
:100A4000007E0F00D4FFFFFFC70000007800000009
:100A500000000000002A2B28000000000000000019
:100A6000000000000000000029000000002C1E34DF
:100A700020212224342627252E362D3738271E1FE5
:100A8000202122232425263333362E37381F040510
:100A9000060708090A0B0C0D0E0F1011121314157E
:100AA000161718191A1B1C1D2F3130232D3504055C
:100AB000060708090A0B0C0D0E0F1011121314155E
:100AC000161718191A1B1C1D2F3130354C20200009
:100AD00011241FBECFEFDAE0DEBFCDBF12E0A0E0F1
:100AE000B1E0ECE3FDE602C005900D92A23DB10736
:100AF000D9F728E0A2EDB2E001C01D92A431B207FF
:100B0000E1F70E94DA2A0C9467360C940000AC01DD
:100B10009B01860F971F2095309557FD07C028230E
:100B2000392337FF09C08FEF9FE70895282B392B12
:100B300037FD02C080E090E808959C0121388FEFD6
:100B400038072CF02038310524F4822F089581E8ED
:100B500008958FE70895ABE0B0E0E1EBF5E00C9489
:100B600039348C01FC016281F381FB87862F87FD7C
:100B700081959F2F97FD9195890F9927991FC12CDA
:100B8000D12C20E4E22EFE2C8D339105C4F48F315C
:100B900091050CF059C0863091050CF05CC00297AD
:100BA0008430910508F057C0880F991F880F991F4E
:100BB000FC01EE53FD4FC080D180E280F380062E11
:100BC000000C770B880B990B0E946E35A7019601DC
:100BD00069837A838B839C8369817A818B819C81F1
:100BE0000E94D2352B013C01C301B2010E9436356F
:100BF0001B01CB010E949D05F8018283FB856F2FAD
:100C0000FF0F770B880B990B0E946E35A701960199
:100C10004B015C01C501B4010E94D2356D837E8316
:100C20008F8398876D817E818F8198850E9436356C
:100C300069877A8789859A850E949D05F801838353
:100C40002B96E2E10C945534C12CD12C90ECE92E7A
:100C50009FE3F92EB4CFC12CD12C80E8E82E8FE38E
:100C6000F82EADCFEF92FF920F931F93CF93DF93A8
:100C7000FC018B01D42F80919501811101C085E089
:100C80008150990B21E030E002C0220F331F8A957A
:100C9000E2F780819181B9010E947C347B019183CC
:100CA000808382819381B9010E947C349383828303
:100CB000CB010E949D05C82FF8018583C7010E94C2
:100CC0009D05982F9195F8019483D11519F0C19540
:100CD000C5838483CDB7DEB7E6E00C9461348091A0
:100CE0008301F90180830895CF93DF93E3E8F1E076
:100CF00083819481A581B681E90188839983AA8340
:100D0000BB831482138216821582DF91CF910895DE
:100D10009C01FB019A9581159F4140F4832F8170BE
:100D200031FD82E032FD84600995089580E0FCCFBA
:100D3000982F92959F7024E0911102C020E0982F87
:100D4000892F86958695811511F02E5F982F892F12
:100D50008695820F089580930A080895292F983068
:100D600090F5863080F590E036E0239F800D911D50
:100D70001124282F277041E001C0440F2A95EAF77B
:100D800023E0969587952A95E1F7FC01EE0FFF1F6A
:100D9000E80FF91FE75AF84F20E030E070E051917A
:100DA000DF01CB01022E02C0969587950A94E2F7E7
:100DB000817081958527842385278E932F5F3F4FF0
:100DC0002330310561F70895292F983078F5863062
:100DD00068F590E036E0239F800D911D1124682F67
:100DE000677023E0969587952A95E1F7FC01EE0F51
:100DF000FF1FE80FF91FE75AF84F40E050E080E08E
:100E0000219130E0062E02C0369527950A94E2F72C
:100E100021703327042E01C0220F0A94EAF7822B97
:100E20004F5F5F4F4330510559F7089580E00895B3
:100E30008091070790910607981301C008958F5F6E
:100E40008770FACF982F909580910C088923809312
:100E50000C0808959C01811542E59407B8F58115A9
:100E600060E5960708F0BEC0803E9105E0F48D3C39
:100E7000910508F093C0883A910568F4853A910588
:100E800008F07DC08130910521F00497813A9105E9
:100E900038F4C9010895885A91094B9708F473C032
:100EA00020E030E0F6CF8115904468F4211580E20F
:100EB000380708F0ADC0283E310558F3C9019A95AE
:100EC00081159F41E5CF3F70306AE3CF803862E5FE
:100ED0009607C8F5803672E5970708F068C0203499
:100EE00082E53807D0F4203292E5390708F058C07F
:100EF000822F8695869540E2849FC001112423703D
:100F000041E050E0BA0102C0660F771F2A95E2F770
:100F10009B01282B392B3D68BCCF822F8695869567
:100F2000877070E2879FC0011124237041E050E078
:100F3000BA0102C0660F771F2A95E2F79B01282BA2
:100F4000392B3C68A6CF803C72E5970760F48F711F
:100F5000203A324508F040C090E0982F88279C0145
:100F6000246F306A96CF805C9245809708F098CFC6
:100F7000322F222722273F71206F306A8ACF2452D6
:100F80003109306486CF285AE22FF0E0EE0FFF1FC0
:100F9000E457FD4F2081318134647BCF306579CFB8
:100FA0002F7130E0322F2227216F306A72CF869561
:100FB0008695877040E2849FC0011124237041E030
:100FC00050E0BA0102C0660F771F2A95E2F79B0135
:100FD000282B392B3A685DCF90E0982F88279C0109
:100FE000306257CF43E0880F991F4A95E1F7882771
:100FF0009F70622F6F71462F50E024FF04C070E194
:10100000679FA0011124842B952B9C01306941CF4F
:10101000832F8F71382FE4CF7830B8F46630A8F47E
:101020008830B0F4E62FF0E096E0799FE00DF11DF6
:10103000112490E3899FE00DF11D1124EE0FFF1F95
:10104000E851F94F85919591089580E090E00895D9
:1010500081E0FCCFA0E0B0E0E0E3F8E00C944434A1
:101060007C0100910B0880910A08082BC7E0D0E0B2
:1010700010E0C8010C2E02C0959587950A94E2F7FE
:1010800080FD09C02197A8F7D12C8D2DCDB7DEB7F3
:10109000E7E00C946034DC2EB7018C2F0E940C0822
:1010A0000E942A07019771F3F0CFEF92FF920F93FE
:1010B0001F93CF93FC010781108501151105A1F441
:1010C0008581E080F1808115B1F06115A1F0C70143
:1010D0000E942A08C82F682FC7010E94AE06B701D8
:1010E0008C2F0E940C088C01C801CF911F910F9189
:1010F000FF90EF900895C7010E94E406C82FEFCF3C
:10110000CF93DF93D82FC92F0E942A086D2F7C2FF1
:101110000E940C080E942A07DF91CF910895FC01DC
:1011200084818115B1F0878190850097A1F00E949C
:101130002A07282F92959F709630C1F088F4925F0D
:101140009F70923030F4203FD9F060F481E0283E67
:1011500060F080E00895808191810E948008E9CF4D
:101160009A5FEECF81E0243FA1F7089591E0813F9F
:1011700009F090E081E0283E08F080E0892B089596
:1011800081E0089580E00895F894E82FE295EF70EB
:10119000F0E041A18F7021E030E0B90102C0660F9C
:1011A000771F8A95E2F7CB01962F9095942391A310
:1011B00092A1892B82A378940895EDE9F6E08589C0
:1011C000809346018689809359010895A0E0B0E09C
:1011D000ECEEF8E00C944434372FE82FF0E0EA53BB
:1011E000FA4F71110AC0E4918E2F2E2F6E2F722F9D
:1011F000CDB7DEB7E7E00C946034062F10E0E72EA1
:10120000F12CD4902D2D86E0689FE0011124EFEFA2
:10121000F0E0CE01BF010E942534000F111F45E50B
:10122000469FC001479F900D1124081B190B402FAA
:10123000440F400F8F010E191F09D09ED001D19E7F
:10124000B00D11248B2F349F80011124012F112701
:101250007F01E01AF10A8701D09E7001D19EF00C47
:1012600011248F01041B1109A801349F8001359FAF
:10127000100D1124012F1127E01BF10BDE9EA001A0
:10128000DF9E500D1124E52F63307105C1F0CC3F76
:10129000D34058F461307105B1F06230710509F046
:1012A000A5CFED2D2B2F852FA1CF6430710571F0C7
:1012B0006630710509F49ACFEB2F8F2D97CF2B2F26
:1012C0008D2DEF2D93CFED2D2F2D90CFEB2F8D2D3D
:1012D000252F8CCFAC018230910508F408959FEF43
:1012E000413E8EE1580740F4CA0125E09695879566
:1012F0002A95E1F798E0980F61E0E62FE90FFF27C4
:10130000FF1F9F0135952795822F229FF001239F74
:10131000F00DF00D11244E175F0738F49FEF920F78
:10132000961758F78FEF860F08952F3FE9F361E086
:10133000620FF6CFEF92FF920F93970195E0099F0E
:10134000200D311D1124211591E0390710F02FEFE8
:1013500030E02095382F320F08F43FEF832F0F91A4
:10136000FF90EF9008959091C803982B9093C80335
:1013700008950E941C0D0895FF920F931F93CF9321
:10138000DF93182F062FF42EC0E0D0E02F2D402F32
:10139000612FCE010E94B9092196C033D105B1F762
:1013A000CDB7DEB7E5E00C94623480918507837099
:1013B000811110927A01809185078C7F8093850737
:1013C0000895982F862F209185072370211589F085
:1013D000911581F0943080F49F73990F990F2091AB
:1013E00085072370922B9093850710927A010E94B3
:1013F000B309089591E0F1CF93E0EFCF8091850795
:10140000869586958F5F843008F081E061E00E94C8
:10141000E109089580918507869586958A9509F456
:1014200083E061E00E94E1090895982F822F2091C6
:1014300085072370211559F09093860760938707DD
:101440004E3708F04DE7409388070E94B30908958E
:10145000E5E8F7E0818190E021E043816281089630
:101460000E94150A0895E5E8F7E0818121E04381B3
:1014700062818850990B0E94150A0895E5E8F7E00B
:10148000628120E1620F08F46FEF818121E04381E6
:1014900090E00E94150A0895E5E8F7E0628120E1F6
:1014A000621B08F460E0818121E0438190E00E94AA
:1014B000150A0895E5E8F7E0438120E1420F08F4BA
:1014C0004FEF818121E0628190E00E94150A08952A
:1014D000E5E8F7E0438120E1421B08F440E0818128
:1014E00021E0628190E00E94150A0895E5E8F7E0A6
:1014F000248130E1230F08F42FEF248381E00E9440
:10150000B3090895E5E8F7E0248130E1231B08F4EE
:1015100020E0248381E00E94B30908951092BC0367
:101520000895FA01811511F009950895FB01FCCF8A
:10153000FC01680F791F8FEF41E39191892728E023
:1015400030E0982F990F87FF09C0892F84272150F9
:101550003040B9F7E617F70781F70895892FF7CFDD
:1015600063E070E081EB96E00E94980A9091B006EB
:10157000891318C0E091B106EC30A4F488E0E802C9
:10158000F0011124EA5EFE4F0680F781E02D3097CE
:1015900049F024ED36E04091B30664EB76E08091AB
:1015A000B2060995089510929C0710929B0720910E
:1015B000800190917F0180918101211102C090E012
:1015C00080E090937F01809381010895AC01309178
:1015D0009E0760919D07232F621301C00895822FFB
:1015E00090E0FC01EE0FFF1FED56F84F0190F081E7
:1015F000E02DE417F50791F467E0649FF001659F23
:10160000F00D1124E558FE4F41E044832313E6CF4B
:1016100001968370992780939E0708950196282F3D
:101620002370DACFA3E0B0E0E8E1FBE00C944934AA
:101630009C01809107039091080382179307A1F002
:101640003093080320930703E091FC06F091FD0618
:10165000309751F083E089833B832A830680F781AA
:10166000E02DCE01019609952396E2E00C946534B5
:10167000A3E0B0E0EEE3FBE00C9449349C018091E0
:1016800005039091060382179307A1F03093060398
:1016900020930503E091FC06F091FD06309751F090
:1016A00084E089833B832A830680F781E02DCE0185
:1016B000019609952396E2E00C9465342FB7F894CF
:1016C00060910103709102038091030390910403E0
:1016D0002FBF0895CF93C82F809190018C1751F0A0
:1016E0000E945E0B6093910170939201809393012D
:1016F00090939401C0939001CF9108950F931F93FD
:101700008B019C014FB7F894609101037091020323
:1017100080910303909104034FBF601B710B820BF8
:10172000930B1F910F910895809100030895FC0180
:101730009B018091F6029091F7028617970740F07F
:10174000672B29F48091E8008E778093E800C90127
:1017500040E0009741F4411106C08091E80082FF0B
:101760002FC080E008952091F4062115A9F12530BD
:10177000A9F12091E80023FD2DC02091E80022FD71
:10178000ECCF2091E80020FFE4CF3091F3002091CE
:10179000F200009719F02830310558F041E0283068
:1017A000310509F040E02091E8002E772093E80011
:1017B000D0CF41914093F10001972F5F3F4FE9CF88
:1017C0008091F406811541F0853041F08091E80068
:1017D00083FFC3CF81E0089582E0089583E00895F8
:1017E0008091F00287FF13C08091E80082FF06C05D
:1017F0008091E8008B778093E80008958091F4064B
:101800008111F2CF08958091F4068115D9F380916A
:10181000E80080FFF8CF8091E8008E77ECCF209130
:10182000E4003091E50095E6A9012091EC00822FBB
:10183000817020FF06C08091E80080FF06C080E034
:1018400008952091E80022FD1AC08091F4068115C8
:1018500089F0853089F08091EB0085FD0FC02091E3
:10186000E4003091E50042175307F9F29A95E1F64A
:1018700084E0089582E0089583E0089581E008956A
:10188000E8EDF0E080818E7F80831092E20010927C
:10189000DA001092E100A0EEB0E08C9181608C93B0
:1018A00080818F77808319BCA7EDB0E08C918E7F0B
:1018B0008C9380818F7E80831092EF020895982F01
:1018C0009093E900891771F07091EC002091ED0080
:1018D0005091F00021FD09C09F5F973089F78093F8
:1018E000E9000895762F242F50E03091EB003E7FE1
:1018F0003093EB003091ED003D7F3093ED0030915F
:10190000EB0031603093EB007093EC002093ED001E
:101910005093F0002091EE0027FDDECF0895A0E067
:10192000B0E0E5E9FCE00C944334C8EDD0E08881F8
:101930008F7E8883E7EDF0E080818160808384E0A2
:1019400082BF81E08093EF0288818E7F888302EEE0
:1019500010E0F80110821092DA0081EEC82ED12C2E
:10196000F601108288818F778883888180688883D8
:1019700088818F7D888319BC1092F4061092EE0244
:10198000109210061092ED0290EEE92EF12CF70164
:1019900080818B7F808388818160888342E060E0E2
:1019A00080E00E945F0CF60180818E7F8083F801C9
:1019B000808181608083808188608083F70180815D
:1019C0008E7F8083888180618883CDB7DEB7E8E031
:1019D0000C945F34E09107079091060729E0E91322
:1019E00002C080E00895AE2FB0E02E9FF0011124D8
:1019F000E85FF84F3181361306C03081381303C0D9
:101A00003581341304C0FD013196E770E8CF81E0E1
:101A1000089525982D9A869A8E9885E08A95F1F7F3
:101A2000000083B186988E9A90EA9A95F1F7002487
:101A300085FF0394802D0895FF920F931F93CF93FA
:101A4000DF93EC01F62E042F122F0E94090D811155
:101A500023C0C831D1051CF16897FE01EE0FFF1FAE
:101A6000DF01AC0FBD1FA45DBC4F11968C91119787
:101A70008F1107C08C91801304C012968C9181172E
:101A800071F081E08093BC03EC0FFD1FE45DFC4F1F
:101A9000F1820083128303C0C831D105F4F2CDB7BF
:101AA000DEB7E5E00C9462348091F506811115C033
:101AB00088EC90E02091E30027FD16C0EFE3FCE9FD
:101AC0003197F1F700C000000197A1F782E0809301
:101AD000F5060E94400C1092F40681E09091F50604
:101AE000913031F080E0089581E08093F506F5CFE4
:101AF0000895CF92DF92EF92FF920E94540D8115CC
:101B000059F00E945E0B6B017C01C701B601FF908A
:101B1000EF90DF90CF9008950E945E0BC090F60684
:101B2000D090F706E090F806F090F906C60ED71EA2
:101B3000E81EF91EEACF0E94540D811559F0E0917C
:101B4000FC06F091FD06309729F00190F081E02D20
:101B50000995089580E008958091BC03811541F1B5
:101B6000539A3BB1377F2BB128604FB7F8948CE282
:101B700093E0FC010196508168E02BB9000000C0A1
:101B800057FF3BB9550F000000C000C000C03BB973
:101B900000C06A9591F753E08C3B950751F74FBF12
:101BA0008FE594E00197F1F700C000001092BC03AC
:101BB00008950F931F93CF93DF938B01EA019091C8
:101BC000F406943059F58093E9008FEF9091E80086
:101BD00095FD06C095ED9A95F1F700008A95B1F74D
:101BE0008091E80085FF1AC00E940F0C811111C07E
:101BF0008091E80085FD06C08091E8008E77809393
:101C0000E800F2CFF80181918F018093F1002197D4
:101C100079F78091E8008E778093E800DF91CF918B
:101C20001F910F910895CF93DF93D82FC92F48E0CC
:101C300050E0682F792F81E00E94D90D88E0ED2FC8
:101C4000FC2FA8EFB2E001900D928A95E1F7DF91A9
:101C5000CF910895BC0146E050E082E00E94D90D8A
:101C60000895BC0143E050E082E00E94D90D089540
:101C7000A0E0B0E0EEE3FEE00C944134182F092F11
:101C8000B62EA72E7A01809187069AE0C92ED12C14
:101C90008A3018F0CC24C394D12CC1E0D0E06B2D55
:101CA0007A2D812F902FF7010995811116C0219669
:101CB000CC16DD0694F0CC9FC001CD9F900D900D09
:101CC000112420E030E045E34A95F1F700002F5F52
:101CD0003F4F28173907B9F7E2CFCDB7DEB7EAE0B3
:101CE0000C945D3490916C078091CB03981308C0DD
:101CF00080916D07811519F19091CC038917F9F046
:101D0000E091FC06F091FD06309799F581E0209175
:101D10006C0796E0EBE6F7E0DF01392F1D923A956C
:101D2000E9F720936C07AAECB3E001900D929A9525
:101D3000E1F791E0211101C090E0892B0895809195
:101D40006E07811521F09091CD038913D9CF809131
:101D50007007811521F09091CF038913D1CF809125
:101D60006F07811521F09091CE038913C9CF80E0D0
:101D7000CECF82E080936B070480F581E02D8BE667
:101D800097E00995C3CF815D883090F440916C074E
:101D900021E030E0F90102C0EE0FFF1F8A95E2F763
:101DA000CF01611531F0842B80936C070E94720E75
:101DB000089580958423F8CFAEE1B0E0E2EEFEE036
:101DC0000C94493440916B0750916C0760916D07FA
:101DD00070916E0780916F07909170070E94C718ED
:101DE00020936B0730936C0740936D0750936E07F9
:101DF00060936F077093700786E0EBE6F7E0DE0113
:101E0000179601900D928A95E1F786E0FE013796CC
:101E1000DE011D9601900D928A95E1F786E0FE01A4
:101E20003D96DE01119601900D928A95E1F786E0CC
:101E3000FE013196ABE6B7E001900D928A95E1F78D
:101E400086E0EBE6F7E0DE01599601900D928A9567
:101E5000E1F786E0FE017996DE01179601900D927A
:101E60008A95E1F786E0FE013796DE011196019032
:101E70000D928A95E1F786E0FE013196DE015396D8
:101E800001900D928A95E1F786E0FE017396DE01DE
:101E9000179601900D928A95E1F786E0FE0137963C
:101EA000ABE6B7E001900D928A95E1F70E94720EC1
:101EB000811102C08091C9031092C9036E96E2E0BD
:101EC0000C94653480910C0890919207892B809333
:101ED000D40290918D07911591F0892B8093D402B3
:101EE00020E086ED92E0FC013081019631112F5FF8
:101EF00032E08C3D9307B9F7211110928D0748E02D
:101F000050E06EEF76E084ED92E00E94C134892BC0
:101F1000A9F088E0E4EDF2E0AEEFB6E001900D92BA
:101F20008A95E1F7E091FC06F091FD06309731F0DB
:101F30000280F381E02D84ED92E0099508958115EA
:101F400039F090910C08892B80930C080E94620F45
:101F50000895811539F090919207892B809392070B
:101F60000E94620F0895811521F00E9422070E94AD
:101F7000620F0895811541F0809590919207892311
:101F8000809392070E94620F08950F931F93CF933F
:101F9000C82F811539F18CEF8C0F813AA8F506ED29
:101FA00012E0F8018191C81709F122E0EC3DF20737
:101FB000C9F7EFEF80E0D8019D918D01C91781F03D
:101FC000EF3F19F4911101C0E82F8F5F863099F728
:101FD000EF3F31F00E2E000CFF0BEC52FD4FC28391
:101FE0000E94620FCF911F910F910895E6EDF2E0EC
:101FF0008191C81302C0DF011E9232E0EC3DF3076D
:10200000B9F70E94620FD5CF80E28C0F883068F458
:10201000C77081E090E001C0880FCA95EAF7C091CF
:102020000C08C82BC0930C08DBCF8BE58C0F8330DA
:1020300038F42C2F2452330BC9010E94120BD2CF3B
:10204000E8E5EC0FEB3150F4F0E0EE0FFF1FE45742
:10205000FD4F808191810E94380BC4CF83E38C0FA8
:10206000833108F0BFCF61E08C2F0E94C30EBACF3E
:10207000CF93C82F69EA7FE00E9488068C2F0E94C8
:10208000C50FCF9108958115C9F19CEF980F913A32
:1020900070F4E6EDF2E09191891302C0DF011E9227
:1020A00092E0EC3DF907B9F70E94620F089590E2C3
:1020B000980F983050F4877091E001C0990F8A957D
:1020C000EAF7892F0E942207EFCF9BE5980F933004
:1020D00028F480E090E00E94120B089598E5980F94
:1020E0009B3128F480E090E00E94380B089593E340
:1020F000980F933118F460E00E94C30E0895CF93B7
:10210000DF93EC010E9443106AEB7FE0CE010E9456
:102110008806DF91CF910895CF93DF93D82FC92FF1
:102120000E9438108D2F9C2F0E947F10DF91CF913D
:1021300008950F931F93CF93C82F00E510E08933C4
:1021400011F000E010E08C2F0E94C50F0115110561
:1021500039F48C2F0E944310CF911F910F91089555
:102160008FE99FE00197F1F700C0000001501109CD
:10217000EDCFE6EDF2E086E0DF011D928A95E9F70A
:1021800080E090E00E94120B80E090E00E94380B0B
:10219000109292070E94620F089510920C080E94FC
:1021A000B9102FEF84E39CE0215080409040E1F78C
:1021B00000C0000088E19AE00FB6F894A8958093DB
:1021C00060000FBE90936000FFCFAAE2B0E0EBEE9C
:1021D000F0E10C94483480EF92E0FC0101962091EC
:1021E000F100208322E0883F9207B9F78091F10245
:1021F000893009F458C0C8F4823009F4B4C083307F
:1022000009F483C0813081F18091E80083FFE8C048
:102210008091F0029091F1029A3008F0E1C0E92F2C
:10222000F0E0E759F94C0C94B2348A3009F48AC0D2
:102230008B3051F78091F002813231F78091F402B6
:102240009091F502892B01F78091E800877F8093B8
:10225000E8000E94F00B8091F2028093000110923E
:102260000C080E94B910D0CF8091F002813A61F63B
:102270008091E800877F8093E8008091F40290913C
:10228000F502892B61F060E080E090E070E00E9450
:10229000970B8091E8008B778093E800B5CF68E0DA
:1022A00088EF92E0F3CF8091F002813209F0ACCF59
:1022B0008091F4029091F502029708F0A5CF8091E9
:1022C000E800877F8093E8008091E80082FF18C0D3
:1022D0009091F3008091F200029731F48091F10027
:1022E000813011F0863021F48091F1008093000359
:1022F0008091E8008B778093E8000E94F00B84CFF8
:102300008091F4068111E0CF7FCF8091F002813A75
:1023100009F07ACF8091F4029091F502892B09F0AF
:1023200073CF8091E800877F8093E8008091E80078
:1023300080FFFCCF809100018093F1008091E80044
:102340008E77D9CF8091F002813209F05DCF8091F4
:10235000E800877F8093E8000E94F00B8091F302F1
:102360008093EC0251CF8091F002813A09F04CCF7A
:102370008091E800877F8093E8008091E80080FFEB
:10238000FCCF8091EC02D8CF803889F0823841F5BB
:102390008091F4028F70873018F58093E900809166
:1023A000EB0085FB882780F91092E90006C0809138
:1023B0001006880F9091ED02892B9091E800977F8D
:1023C0009093E8008093F1001092F1008091E80072
:1023D0008E7723C0811116C08091F202813011F1F5
:1023E0008091E80083FF0AC08091E800877F809396
:1023F000E8008091EB0080628093EB00AA96E3E016
:102400000C946434823061F78091F202811589F076
:102410001092E9008091E800877F8093E8000E9495
:10242000F00BDECF81E0933009F080E0809310065E
:10243000EFCF8091F4028F702FEF280F263080F6B7
:102440008093E9002091EB0020FFE2CF933031F43C
:102450008091EB0080628093EB00DACF9091EB00EB
:1024600090619093EB0021E030E0A90102C0440F9D
:10247000551F8A95E2F74093EA001092EA00809196
:10248000EB008860E8CF8111ABCF1091F2021F778B
:102490008091E3008078812B8093E3008091E800B5
:1024A000877F8093E8000E94F00B8091E80080FF16
:1024B000FCCF8091E30080688093E30083E01111FA
:1024C00001C082E08093F4068BCF8058823008F000
:1024D00087CF2091F2023091F3022C3D53E0350773
:1024E00099F583E08A838AE289834FB7F894DE0105
:1024F000139620E03EE051E2E32FF0E050935700C6
:10250000849120FF03C082958F703F5F8F708A3067
:10251000C8F0895C90E08D939D932F5F243161F723
:102520004FBF8091E800877F8093E8006AE270E007
:10253000CE0101960E94970B8091E8008B778093E3
:10254000E8004ECF805DE6CF832F99278330910539
:1025500029F160F48130910509F475C0029709F002
:102560003FCF8BE390E0EDE4F5E02CC02091F40246
:102570003091F5028132910509F459C0829709F032
:102580002FCF2115310509F468C02130310509F03C
:1025900027CF8BE790E0EEE8F4E014C0C90199275B
:1025A0002130A9F182309105D1F1892B09F018CFA2
:1025B000E2ECF5E0E4918E2F90E0E2ECF5E000979C
:1025C00009F40ECF2091E800277F2093E8002091A6
:1025D000F6023091F7028217930708F49C0140E05D
:1025E0002115310509F03EC041113CC08091E80041
:1025F00082FDA2CF8091F406811509F49DCF85302C
:1026000009F49ACF8091E80083FFF0CF95CFE0EBFB
:10261000F5E0E4918E2F90E0E0EBF5E0D0CFEAE931
:10262000F5E0E4918E2F90E0EAE9F5E0C8CF2115BE
:10263000310571F02130310509F0D2CE89E090E00A
:10264000E8E7F5E0BFCF82E190E0E8E8F5E0BACF57
:1026500089E090E0EFE5F5E0B5CF84E490E0E9E0D3
:10266000F5E0B0CF8091F406811509F465CF85308F
:1026700009F462CF8091E80083FD5ECF8091E8008D
:1026800082FDB4CF8091E80080FFAACF9091F30043
:102690008091F2002115310519F08830910550F034
:1026A00041E0089709F040E08091E8008E77809340
:1026B000E80096CF44914093F100319621503109C2
:1026C0000196E8CF803809F08BCE8091E800877FB3
:1026D0008093E8008091EE028093F10077CE811123
:1026E0007FCE1091F202123008F07ACE8091E8008D
:1026F000877F8093E8001093EE020E94F00B111583
:1027000081F084E08093F40642E061EC81E00E9475
:102710005F0C42E261EC82E00E945F0C8091F40663
:102720005FCE8091E30087FDECCF81E0EBCFE5E861
:10273000F7E089E080838091AD019091AE01A09196
:10274000AF0181839283A3838FE784838FEF858397
:1027500048E050E068E170E0CF010E94023510923D
:10276000C8030895A8E0B0E0E8EBF3E10C94493425
:1027700066EE7EEF80E090E00E94303560E082E01F
:1027800090E00E94123560E083E090E00E941235F4
:1027900010920A0860E074E184E090E00E94303515
:1027A00060E086E090E00E9412356FEF87E090E0F5
:1027B0000E94123540E050E0BA0188E090E00E94AB
:1027C000243560E084E290E00E94123560E087E109
:1027D00090E00E94123560E08CE090E00E9412359B
:1027E00060E08DE090E00E94123519821A821B820F
:1027F0001C821D821E821F82188648E050E068E11C
:1028000070E0CE0101960E94023540E050E0BA012E
:1028100080E290E00E94243540E050E0BA018FE071
:1028200090E00E94243540E050E0BA0183E190E05E
:102830000E9424352896E2E00C946534A0E0B0E0D4
:10284000E4E2F4E10C944334FA0169017801C82F01
:10285000880FDD0B3097B9F0DE0193E0AA0FBB1FA4
:102860009A95E1F7AA5EBE4F11968D919C911297B1
:102870008356994F2C91422F50E0E217F10508F44E
:10288000AF010E94CE34CE010E94B133182F8115C2
:10289000D9F0E114F104C1F083E0CC0FDD1F8A957B
:1028A000E1F7FE01EA5EFE4F8381482F50E0E81613
:1028B000F10408F4A701CA5EDE4F6C817D81635686
:1028C000794FC6010E94CE34812FCDB7DEB7E8E044
:1028D0000C945F34A0E0B0E0E0E7F4E10C94413404
:1028E000F82EEB01A42ED22EE32EB02EC12E68813D
:1028F00079818A819B810E947E0B643671058105F6
:10290000910510F4A11499F000E010E020E030E00F
:102910004B2D5C2D6D2D7E2D8F2D0E941E1481154B
:1029200039F00E945E0B688379838A839B8381E000
:10293000CDB7DEB7EAE00C945D34A9E0B0E0E3EA9D
:10294000F4E10C94473488E0E5E8F7E08E010F5F8E
:102950001F4FD80101900D928A95E1F7198649E041
:1029600050E066EA76E0C8010E94C13441E0980177
:10297000892B09F440E009E010E06DE876E083E09F
:102980000E946A142996E4E00C946334A1E0B0E05C
:10299000ECECF4E10C944734809188068983209113
:1029A000AF0690E041E02817190609F440E001E085
:1029B00010E09E012F5F3F4F69E876E084E00E94BF
:1029C0006A142196E4E00C946334A5E0B0E0EBEEE9
:1029D000F4E10C9444347B0101E010E09E012B5F94
:1029E0003F4F40E050E060E070E080E00E941E1445
:1029F000182F811509F447C06091990670919A06C5
:102A000080919B0690919C060E947E0BDD8064362F
:102A100071058105910540F464E070E08EE996E06F
:102A20000E94980AD81679F104E010E09E012F5F09
:102A30003F4F40E050E060E070E081E00E941E14F3
:102A4000182F64E070E08EE996E00E94980AD81290
:102A500028C0111531F10E945E0B609399067093A6
:102A60009A0680939B0690939C0689819A81AB81FC
:102A7000BC818093950690939606A0939706B09399
:102A8000980681E00FC080919E0690919F06A091CC
:102A9000A006B091A10689839A83AB83BC831111F0
:102AA000E4CF80E04091950650919606609197069C
:102AB00070919806F7014083518362837383259652
:102AC000E7E00C946034A4E0B0E0E9E6F5E10C94B2
:102AD000473460919106709192068091930690918F
:102AE00094060E947E0B11E0643671058105910504
:102AF00020F10E94790DDC01CB010296A11DB11DD0
:102B000089839A83AB83BC8300E010E020E030E04F
:102B100044E050E0BE016F5F7F4F82E00E941E14D0
:102B2000182F811551F00E945E0B609391067093EF
:102B300092068093930690939406812F2496E4E066
:102B40000C946334A5E0B0E0E8EAF5E10C9441347C
:102B50008D83E62E5A01F22E6801809187068A3015
:102B600028F080E02596EAE00C945D348D81893070
:102B7000C4F319828A836B832C8363E070E0CE01F7
:102B800002960E94980A8983E0924601F0925901C8
:102B900000E010E020E030E044E050E0BE016F5F74
:102BA0007F4F85E00E941E148115D9F24E2D50E012
:102BB00020E030E0B50186E00E941E14811589F204
:102BC00020E030E041E050E0BE016B5F7F4F87E0E6
:102BD0000E941E14811529F20F2D10E0960140E08D
:102BE00050E060E070E088E00E941E14BBCF81E0FE
:102BF0008093C80348E050E068E170E085E897E022
:102C00000E94DE341092C80308950E94D5090E94E4
:102C1000F71580918507982F9370911529F060E042
:102C2000869586950E94E10908950F931F93CF938F
:102C3000C82F0E949806982F81E0963009F080E016
:102C40000E946A0B8C2F90E0A0E0B0E0AC01BD01C7
:102C5000F4E07695679557954795FA95D1F7411524
:102C600051056105710521F5AC01BD0180E08A01C6
:102C70009B01E2E03695279517950795EA95D1F7E0
:102C8000011511052105310519F08E5FB901A80163
:102C90007695679557954795480F463029F1473007
:102CA00069F1443039F04530A9F00E9405160DC095
:102CB00084E0DDCF60E081E00E94E10920E040E8AF
:102CC0006FEF8FEB90E00E94150A8C2FCF911F9130
:102CD0000F91089560E081E00E94E10920E040E862
:102CE0006FEF80E090E0EFCF60E081E00E94E109CB
:102CF00020E040E86FEF80E890E0E5CF60E081E021
:102D00000E94E10920E040E86FEF85E590E0DBCF2D
:102D10000E94151680930B08089521E030E001C051
:102D2000220F8A95EAF780910B08822B0E94881661
:102D3000089521E030E0A90102C0440F551F8A9593
:102D4000E2F7CA01809590910B0889230E948816AA
:102D5000089590918F078095892380938F07282F5E
:102D6000277021110DC0891759F09091910792FF9A
:102D700007C08695869586950E94991610928F07B2
:102D800008959091910792FB222720F9281779F056
:102D900080FB92F990939107609190077091910751
:102DA00084E090E00E94303582E00E94A9160895E8
:102DB000A0E0B0E0EEEDF6E10C9443346C017B0151
:102DC00064E670E088E70E9472318C01E601EC0C49
:102DD000FD1C17FD0BC0FE01849164E670E00E94AB
:102DE000E1318C012196CE15DF0599F70E946632FC
:102DF00081E00115110509F080E0CDB7DEB7E8E00C
:102E00000C945F3480910806811569F080918806E2
:102E1000811549F062E070E084EB90E00E94D816E2
:102E20008111109288060895809108068115F9F0A5
:102E30000E945E0BDC01CB01805A9541AF4FBF4F22
:102E40008093090690930A06A0930B06B0930C0694
:102E50008091880681110BC062E070E082EB90E007
:102E60000E94D816811519F081E080938806089594
:102E7000CF93DF93282F81E02A3019F02D3031F4E1
:102E800080E00E94BE17DF91CF91089580910504E4
:102E90009091060436E0FC01A6EEB2E001900D929E
:102EA0003A95E1F730EE320F343A08F458C026E094
:102EB000FC0111922A95E9F7C0910504D09106040E
:102EC00046E050E0BE0186EE92E00E94C1349E01D1
:102ED00027503440892B41F1C90145E096958795EB
:102EE0004A95E1F741E050E0BA0102C0660F771F52
:102EF0008A95E2F7CB016091030470910404862B5C
:102F0000972BB9016B5F7F4FE5E076956795EA9562
:102F1000E1F702C0440F551F6A95E2F7842B952B09
:102F200090930404809303042A5F3F4F40910D0661
:102F3000642F70E0C9010E942534481B463010F40C
:102F4000240F311D211572E0370710F020E030E02A
:102F5000295F3B4F309306042093050494CF205201
:102F6000330B46E0429FB001439F700D11246A5419
:102F70007F4F46E050E00E94B8349ECFCF93382F69
:102F8000E0910504F0910604E750F44020910D060D
:102F9000622F70E0CF010E942534281B822F31154B
:102FA00061F066E00E947034C82FC15010F4CF91D8
:102FB000089580E20E943817F8CF8E0F9F2F911D41
:102FC000811522E0920710F080E090E0895F9B4F2E
:102FD0009093060480930504EACFEF92FF920F933B
:102FE0001F93CF93C0E88DECE82E8AE0F82EF7010E
:102FF00084910DEC1AE0811113C010E11C0F8C2F8D
:10300000CF5F0E943817C113FACF80E00E94BE172D
:10301000C03B69F7CF911F910F91FF90EF900895FA
:103020000E9438170F5F1F4FF8018491E4CF28E00A
:1030300030E043E060E086E30E949D300895CF9346
:10304000C82F0E9417188C2F0E9412318FE792E030
:103050000197F1F700C000000E942A31C82F95E0C7
:103060009A95F1F700000E94423185E68A95F1F7C2
:103070000000109211088C2FCF910895CF93DF9309
:10308000D82FC62F0E9417188D2F80680E941231EA
:103090008C2F0E9412318AEB8A95F1F700C00E94B2
:1030A000423183E492E00197F1F700C00000DF9124
:1030B000CF910895682F893708F068E760938E01F3
:1030C00091E090938F0190918301911539F06150B7
:1030D000811101C062E08FE00E943E1808952091A6
:1030E0008E01211101C023E0082E000C990B820FE4
:1030F000911D1816190614F081E090E00E945A18EC
:103100000895FB0180810E945A180895CF93DF93A0
:103110000E949530269A0E9417186AE58AE30E9459
:103120003E182FEF80E792E0215080409040E1F779
:1031300000C0000082E00E941F1883E00E941F1858
:1031400084E00E941F1885E00E941F1886E00E94FC
:103150001F1860E080E10E943E1880E00E941F1866
:10316000D82F81E00E941F18C82F0E944231D2340C
:1031700059F4C13049F4C093830162E08FE00E94AA
:103180003E18DF91CF91089510928301FACFACE001
:10319000B0E0EDECF8E10C943D344F835887062FF6
:1031A0006987172F7A878B879C8780918301811588
:1031B00009F44AC080911108811107C060E080E5E0
:1031C0000E943E1881E0809311080E94171880E544
:1031D0000E9412312AEB2A95F1F700C00E942A3191
:1031E0000E942A310E942A315C010E942A31812CDE
:1031F000912C982E8A289B280E942A313C010E94FB
:103200002A31A12CB12CB82EA628B7280E94423111
:1032100035E03A95F1F70000F894B4018091860109
:10322000909187010E948705909387018093860182
:10323000B50180918801909189010E948705909342
:1032400089018093880178940E94540D811509F4B6
:1032500072C00E945E0B6B017C0180910D08909101
:103260000E08A0910F08B0911008A7019601281B25
:10327000390B4A0B5B0B283031054105510508F429
:103280005AC0C0920D08D0920E08E0920F08F0923A
:1032900010088091910190919201A0919301B091B9
:1032A0009401C81AD90AEA0AFB0A32E3C316D10408
:1032B000E104F10480F410928701109286011092CB
:1032C00089011092880110928B0110928A0110924C
:1032D0008D0110928C01E09090010E94090DF82E52
:1032E000E11409F43FC01A87482FBE01695F7F4F80
:1032F00086E891E00E943206D0909001E090830130
:103300000E94090D91E0F82EF926DE1409F44DC053
:103310004F2DBE01695F7F4F8AE891E00E9432061F
:1033200009871A8786E0FE013796AAE9B1E0019085
:103330000D928A95E1F709871A8786E0FE01379694
:10334000DE01119601900D928A95E1F729813A816B
:103350004B815C816D817E8180E090E02C96EEE077
:103360000C94593480918801909189010E949D05A7
:10337000182F80918601909187010E949D05982FBA
:10338000F11411F01195919519879A87CE0107963E
:103390000E94AB0509851A8510928701109286015B
:1033A0001092890110928801A7CF80918C01909191
:1033B0008D010E949D05182F80918A0190918B01AB
:1033C0000E949D05982FF11411F011959195198780
:1033D0009A87CE0107960E94AB0509851A8510923F
:1033E0008B0110928A0110928D0110928C0198CF5E
:1033F0001F921FB61F9211248F939F93AF93BF9379
:1034000080910F06811113C08091010390910203F6
:10341000A0910303B09104034196A11DB11D8093B7
:10342000010390930203A0930303B0930403BF919D
:10343000AF919F918F911F901FBE1F9018952FB72E
:10344000F8948091010390910203A0910303B0913D
:1034500004032FBF0895A0E0B0E0E1E3FAE10C948B
:103460003B347C01DC0114968C91811509F489C1EF
:1034700061E0C7010E945508EC0190939701809389
:103480009601F70180819181909399018093980131
:10349000FE013497D70115968C91E533F10508F0BC
:1034A00095C0E851F64FE49120EB811511F02E2FD5
:1034B000E0EBA5EAB1E080E090E03D913E1380C0F2
:1034C0008D579E4FFC0122A3D70115968C91C834CD
:1034D000BEE7DB0709F08FC0811561F08091850799
:1034E000982F9370911509F416C10E94D50981E0B7
:1034F0000E94B309F7018581811589F0C334FEE785
:10350000DF0709F44AC108F019C1C1343EE7D30707
:1035100009F41EC1C2349EE7D90709F437C19E01E0
:103520003A9521153F4108F011C1FE01FF27E93D01
:10353000F10508F047C1E13DF10508F053C1D7019D
:1035400015968C91811509F463C2C137BCE7DB077E
:1035500009F44EC2C237ECE7DE0709F453C2C037A4
:10356000FCE7DF0709F0A7C280907801909079010D
:1035700080917601909177018816990609F079C1BA
:1035800080918407803209F074C18EE797E0EC01E6
:10359000019628812032D9F38881811509F4E0C091
:1035A000813009F0CDC18981813009F090C18E014F
:1035B0000E5F1F4F8A810E949910E8012196ECCF7F
:1035C00001968630910509F078CF7ECFCB34FEE7A7
:1035D000DF07A1F5811509F10E941F1AA0E0B0E0F4
:1035E0008093730790937407A0937507B093760741
:1035F00081E080937207F7018581C634FEE7DF071B
:1036000049F5811509F476CF80917D07811509F47C
:1036100090C088E20E9499106DCF8091710781154A
:1036200049F083EE94E00E947F101092710710928F
:103630007207E1CF8CE20E949910F9CFC0342EE7D7
:10364000D20789F5811549F180E90E94991081E03E
:1036500080937D07D70115968C91C734BEE7DB07B1
:10366000C1F5811509F446CF82EE0E94C50F8BE2A9
:1036700090E00E94381082E390E0AFE9BFE011973C
:10368000F1F700C000000197C1F78BE290E00E94C3
:103690007F1082EE0E9443102DCF81E90E94991085
:1036A00010927D07D7CFCA343EE7D30709F00CCF7D
:1036B000811509F10E941F1AA0E0B0E080937907FC
:1036C00090937A07A0937B07B0937C0781E0809367
:1036D0007807F7018581C934FEE7DF0709F00ACFD3
:1036E000811509F407CF81EE0E94C50F87E20E9481
:1036F000991081EECFCF80917707811541F082E05C
:103700000E9499161092770710927807E2CF85E011
:103710000E948D16F9CF10927A018C7F8160809380
:10372000850781E00E94B30960E082E00E94E10920
:10373000E1CE8CE191E00E948C10DCCEC434AEE787
:10374000DA0791F1C534BEE7DB07A9F1FE01EFCE40
:1037500081E391E00E948C1086E090E00E948C1042
:1037600080918F078770811561F0D70115968C9134
:10377000811539F08091910782FF03C082E00E9499
:10378000A916CDB7DEB7E0E10C94573481E391E0A0
:103790000E948C1082E292E0E1CF81E391E00E94EE
:1037A0008C1084E392E0DACF81E391E00E948C10E8
:1037B0008FE290E0D3CF81E391E00E948C1083E30D
:1037C00092E0CCCFE7302EE7F20789F0811509F4BB
:1037D000B6CEFE57EA30F10508F0B1CEED58F94CFF
:1037E0000C94B234682F8E2F0E94C30EA8CE0E9474
:1037F0006A0BA5CE80E00E945A1810929501B0CFB6
:1038000040918E015091950150FB47F956955370A8
:1038100060E070E08FE090E00E942435A1CF81E06D
:103820000E946F189DCF8FEFFBCF8AE0F9CF86EF14
:10383000F7CF8091900191E089270E946A0B90CF89
:1038400080919501811104C086E08093950188CF15
:103850008F5F181654F081E0F8CF809195018111A7
:1038600002C084E0F2CF8150F4CF883070F387E05B
:10387000ECCF909277018092760180E2809384076A
:10388000A12CB12C1092830703E817E0C0E0D0E030
:103890009AE0492E512C612C712CC501B401A30171
:1038A00092010E949034605D603339F4209729F0D2
:1038B00089288A288B2809F460E2D8016E938D014B
:1038C00049015A012196C530D10539F75ECE8230C3
:1038D00039F48E010E5F1F4F8A810E94C50F6DCE95
:1038E000833039F48E010E5F1F4F8A810E9443108E
:1038F00064CE843011F0219661CE2A81229680E038
:1039000090E06AE0AE014F5F5F4F2053330B2A30E7
:10391000310558F0009709F451CEEFE9FFE03197F7
:10392000F1F700C000000197F5CF689FF001699F93
:10393000F00D1124C9018E0F9F1F2981EA01E2CFEA
:10394000E82FF0E0E35BF54F9490282F269526951D
:10395000269530E0F901E35CF54FC4908770D12CD7
:10396000082E02C0D594C7940A94E2F7C0FACC247A
:10397000DD24C0F8F901E35DF54FA490B12C082EC9
:1039800002C0B594A7940A94E2F7A0FAAA24BB2433
:10399000A0F8F901E35EF54F049110E002C015951F
:1039A00007958A95E2F701701127C114D10419F027
:1039B00081EE0E94C50FA114B10419F086EE0E9499
:1039C000C50F892D0E949910A114B10419F086EE3B
:1039D0000E944310C114D10419F081EE0E944310DB
:1039E0000115110509F4EACD8CE20E949910E6CD8B
:1039F0008091780190917901059690937901809357
:103A00007801AECE80917801909179010597F5CF3C
:103A100080910C088272FE01E052F847E531F10511
:103A200008F05EC0E358F94C0C94B23480918507DD
:103A300091E089278093850710927A0181E00E94A6
:103A4000B3098ECE4AE05AE06EEF79E00E94910A07
:103A500087CE4EEF59E06AE07AE0F8CF43E35AE0D0
:103A600068E27AE0F3CF48E25AE063E37AE0EECF2F
:103A70004CE45AE06EE37AE0E9CF4EE35AE06CE4BE
:103A80007AE0E4CF48E65AE06AE57AE0DFCF4AE53B
:103A90005AE068E67AE0DACF42E85AE066E77AE090
:103AA000D5CF46E75AE062E87AE0D0CF61E081E026
:103AB0000E94E10955CECA35FCE7DF0709F485C04D
:103AC00008F04CC0C1303CE7D30709F47CC0C330D8
:103AD0008CE7D80709F471C0C115DC4709F44FC061
:103AE000F70187819085009709F473C00E942A0727
:103AF000D82FC92FF701D580C680C2948FE0C82285
:103B000080918F0787708115E9F00D2DD114D9F0C0
:103B1000892F807F803451F080E28D0F883090F0C3
:103B2000C11004C0892F807E803261F0809191079E
:103B300082FF08C082E00E94A91680918F078770DB
:103B400001E0811100E0EC2FE295EF70C03C08F03D
:103B5000B8C0F0E0EE56F94C0C94B234CB35ACE77B
:103B6000DA07A9F180919107002482FF0394802D48
:103B7000CC35DC4709F0B4CF0E94C116B1CF10920A
:103B80000C080E94B910EFEFF4E32CE0E150F04094
:103B90002040E1F700C0000087E797E79093010815
:103BA0008093000888E19AE00FB6F894A895809376
:103BB00060000FBE90936000FFCF6FEF7FEF80E05B
:103BC00090E00E9430350E94CD1081E0D5CF80E09A
:103BD000D3CF858100811181811569F0C8010E94D0
:103BE0002A08C82F682FC8010E94AE06B8018C2F82
:103BF0000E940C087BCFC8010E94E406C82FF6CFB4
:103C00001C2F1F70C03110F01295107FD114B9F025
:103C1000111569F080E28D0F883010F0D11109C0C4
:103C200080910C08812B80930C080E94620F8D2FCD
:103C300040C080919207812B80939207F6CF8D2F01
:103C40000E9443101115E9F180E28D0F883010F0C9
:103C5000D11104C0812F0E94220706C010958091C7
:103C600092078123809392070E94620F2AC01C2F23
:103C70001F70C07FC03211F01295107FD11549F02E
:103C8000D13009F46CC0D11409F478C0C114D1F159
:103C9000CECF8091910782FD31C0D11469F011150A
:103CA00039F080910C08812B80930C080E94620FE0
:103CB00080E00E94C50F05C080E00E9443101111F2
:103CC000C9CF0115B1F080918F0780FD12C0D701D7
:103CD00015961C928695869586950E948D16C7012D
:103CE0000E942B1A80918F078695869586950E9453
:103CF000991660E0C7010E94550843CDD11499F090
:103D0000C11004C0812F0E949F0FDBCFF1E0CF12C2
:103D1000D8CF80918D07912F9823191791F2812B7D
:103D200080938D07CECFC110CCCF812F0E94B30FCF
:103D300090918D07812F8923811529F0812F8095FE
:103D4000892380938D0780918E07912F9823911559
:103D500009F4B7CF1095182310938E07B2CFD11462
:103D600029F026E0C21608F0ACCFCCCF35E0C31660
:103D700008F0A7CF812F0E94B30FA3CFC114D1F3B6
:103D8000D93349F48FEF97EEA3E081509040A040E3
:103D9000E1F700C000008D2F0E94431092CF8C2FBE
:103DA000869586958370811569F0813009F089CFF9
:103DB0008D2F9C2F9370D11002C080E090E00E9464
:103DC000380B7FCF8D2F9C2F9370D11002C080E0D5
:103DD00090E00E94120B75CF6D2D8D2F0E94C30EA7
:103DE00070CF8C2F8370811134C0D11027C04D2F1C
:103DF000429546954770440F440F8D2F8F70042EC7
:103E000001C0880F0A94EAF72D2F2071D4FF07C054
:103E10002FE030E001C0220F4A95EAF72095C695C1
:103E2000C695C370C23081F0C33061F030910A088A
:103E3000C13039F0822B83230E94AB060E949B0D78
:103E400040CF832B822BF8CF822B90910A088927B1
:103E5000F3CFD11451F1C0FFF1CF4D2F42954695CC
:103E60004770440F440F8D2F8F70042E01C0880FB0
:103E70000A94EAF72D2F2071D4FF07C02FE030E01D
:103E800001C0220F4A95EAF72095C695C695C370E2
:103E9000C23089F0C33069F030910B08C13041F075
:103EA000822B83230E948816C9CF823038F2D5CF67
:103EB000832B822BF7CF822B90910B088927F2CF8F
:103EC000CF70D11439F08C2F0E948D168D2F0E9447
:103ED0009F0FB4CF8D2F0E94B30F8C2F0E94991685
:103EE000ADCFD23F89F170F4D03FC9F0D13F91F00E
:103EF000D11409F45CC0C11409F456C08D2F0E947E
:103F0000C50F9CCFD33F39F1D43F91F780919107F2
:103F100082FD2CC08C2F8F71D11401F319C0D114E4
:103F200081F0B5E0CB1608F089CFCF7181E090E049
:103F3000FC0101C0EE0FCA95EAF780910B088E27AD
:103F4000B1CFF6E0CF16EFCF8C2F8F71D110C6CF47
:103F50000E948D1673CF80E0D11409F4A3CFCF71E6
:103F600081E001C0880FCA95EAF79CCFD11489F08F
:103F7000CF718C2F0E948D168091910782FF07C010
:103F80008C2F880F880F880F836080938F078C2F6A
:103F9000DFCF81E00E94A91622E0C21608F44ECFBE
:103FA00082E00E94A9164ACF8C2F8F71D1CFC11405
:103FB00079F0D93349F43FEF87EE93E031508040F8
:103FC0009040E1F700C000008D2F0E94431036CFD3
:103FD0008C2F8F7183CF80915607803178F4809138
:103FE0005507811559F0E091070720910607309198
:103FF00051074091500759E02E1301C008956E2FCC
:1040000070E05E9FF0011124DF01A85FB84F1496A5
:104010008C911497811581F111968C9111978313CE
:104020002BC08C91841328C015968C911597811103
:1040300023C012968D919C91A0915207B091530785
:104040008A1B9B0BA0917801B09179018A179B077D
:1040500098F4809156078F70806180935607E25FD5
:10406000F84F80818F708061808380E597E00E94A7
:104070002B1A0E9418070895FB013196E770BCCFF8
:10408000AFE0B0E0E6E4F0E20C943E348C0186E070
:10409000F801DE011A9601900D928A95E1F7D80198
:1040A0001596FC9015971496CC9080E5882E87E0A5
:1040B000982E70905407711020C0C114D9F0F114DB
:1040C00009F45CC1C8010E948F08811509F456C12A
:1040D00089E0F801D40101900D928A95E1F7B1E0F1
:1040E000CB1206C080915007909151070E94800822
:1040F0000E94EB1FFF24F39442C0F801E080A280ED
:10410000B380D09055078091520790915307950145
:10411000281B390BC9012091780130917901D11404
:1041200009F4F1C08217930708F0C0C0C11411F35D
:1041300090915107C18080915607803108F06DC081
:10414000C91222C0909150079E111EC0409157077E
:10415000509158072781308542175307A9F4F11071
:104160004BC08F7080618093560780E597E00E9476
:104170002B1A80915607D80116968C93F12C8F2D0F
:104180002F96EDE00C945A34F11036C040E06C2DBF
:104190008E2D0E94EA0C40E06C2D8E2D0E94EA0CC0
:1041A000F82E8111EBCF8A859B850E948008292FEC
:1041B00022952F70903450F49F70223080F091152A
:1041C00091F0F8019681903170F4D9CF2A5F2F7069
:1041D000223068F0C8010E942B1AFD2CD0CF911517
:1041E00011F0811561F2805E883048F2F3CF803F94
:1041F00030F2815F8330F9CF8091560781608093E0
:10420000560780E597E00E942B1A89E0E0E5F7E089
:10421000DF011D928A95E9F7B1CFC9121CC09091B8
:1042200050079E1118C04091570750915807278199
:1042300030854217530779F4F1100DC08683C80109
:104240000E942B1A89E0F801A0E5B7E001900D92D9
:104250008A95E1F74FCFC8010E948F08811509F4B4
:104260008DC0F11409F48AC0809156078032A8F0FD
:1042700020915007309151073A832983BC82AB8249
:104280007D821E828F83809157079091580799876E
:104290008887CE0101960E942B1A89E0F801A0E5DB
:1042A000B7E001900D928A95E1F722CF80915607F1
:1042B000803138F480E597E00E942B1A89E0D40120
:1042C000A8CFC11409F416CF209151079181291369
:1042D000C2CF909150079E11BECF40915707509189
:1042E0005807278130854217530709F0B4CFF110E2
:1042F000B2CF8683C8010E942B1A89E0D4011D9297
:104300008A95E9F7F7CE82179307C0F6C11409F42E
:10431000F1CEF11499F1309151072181321324C06B
:10432000209150072E1120C04091570750915807F7
:104330002781308542175307B9F48436910508F078
:1043400081CF8091560780FD7DCF803108F47ACFF0
:104350008683982F907F903F09F471CF982F907F9C
:10436000905F8F70892B6ACFC8010E948F088111DE
:1043700094CF80915607816080935607C8010E94B0
:104380002B1AB8CEA2E1B0E0E8ECF1E20C9447348D
:104390000A871B872C873D874E875F87688B798BC1
:1043A0008A8BCE010A960E944020811128C020915C
:1043B00006073091070789E0FE013A96DE01119663
:1043C00001900D928A95E1F78E858115C1F0822FBB
:1043D00090E001968770992738171906D9F099E06F
:1043E000929FD0011124A85FB84FFE013196019031
:1043F0000D929A95E1F7809306070E94180719E03D
:104400008091070790910607891314C06296E4E033
:104410000C94633410920C080E94B9101092060795
:104420001092070789E0E0E5F7E0DF011D928A9529
:10443000E9F7E5CF189FC0011124885F984F0E94CB
:104440004020811519F38091070790E0019687704D
:10445000992780930707D4CFEF92FF920F931F9372
:10446000CF93DF9380910708E0910903CDE081119C
:1044700031C0CDB7DEB7E6E00C946134D1E0DE0F99
:10448000D0930903EE2EF12CCE9FF0011124E156BA
:10449000F84F84818115E9F087819085892B21F47B
:1044A00081859285019659F40081118122813381A1
:1044B000448155816681778180850E94C221CE9D8D
:1044C000F001CF9DF00D1124E156F84F14821092A7
:1044D0009207ED2F80910708E81780F210920708E5
:1044E00010920903C6CFA0E0B0E0E9E7F2E20C9435
:1044F0003934C0919E0797E0F92E01E010E02DE0DD
:10450000222EEE24E39480919D078C1309C00E9413
:104510002C220E94D30ACDB7DEB7E2E10C945534C9
:10452000D0E0FE01EE0FFF1FED56F84F8081918124
:10453000F89EB001F99E700D112465587E4FFB0165
:10454000248121115DC030900708AFE9B7E040E059
:1045500050E0612C431508F051C01B96AD90BC9003
:104560001C97FB018080918044244A9455245A94DE
:10457000712C272D30E0F401E70DF11DE70DF11D41
:10458000C590D590AC14BD0409F09201C114D104BA
:1045900019F073942901EDCF2F3F3207B9F1F801DB
:1045A00002C0EE0FFF1F2A95E2F76E2A9801072C32
:1045B00002C0220F331F0A94E2F72150310962161C
:1045C000130609F5249EF001259EF00D1124E156F5
:1045D000F84FF89ED001F99EB00D1124A558BE4F9A
:1045E00012962D913C9113973087278324E02483E2
:1045F00010821182928781871596EC920E94E60ABA
:104600002196C37080CF14961C9214974F5F5F4F12
:104610001D96A0CF109209081092080810928201EE
:1046200080919D0780939E070E94D30A0E942C22AE
:1046300008959C014FB7F894809101039091020373
:10464000A0910303B09104034FBF821B930B089505
:10465000A8E1B0E0EEE2F3E20C9439344B8B5C8BD2
:104660006D8B7E8B8F8BF92E988F992E91111092D6
:104670009207188A198A1A8A86E0FE017396DE016B
:104680001A9601900D928A95E1F7EF88E11491F066
:10469000EE86FF8661E0CE010A960E9455086C0105
:1046A00080352CE7920799F4911409F48BC181E0CD
:1046B00080938201EE86FF860A851B852C853D85C9
:1046C000A701688979898A890E94C2218EC08135B3
:1046D0009C4731F4911409F475C10E940A23EACF72
:1046E00082E5C8168CE7D80609F06CC1911409F46C
:1046F00069C1809182018111F0CFD9CFAFEFAA16A5
:10470000BA0609F47DC160917F01109182016111A7
:1047100010E08090800180918101911409F4E5C03E
:10472000111509F4E2C0811017C041E050E00A2CD5
:1047300001C0440F0A94EAF7842B80938101809191
:104740009B0790919C078436910530F484E690E0B5
:1047500090939C0780939B0781E090E002C0880FB4
:10476000991F2A95E2F701972091810128171906D0
:1047700071F480910808909109080097D1F10E9486
:10478000192385369105A8F181E080937F010E946D
:104790001F1A9093090880930808809107088830B1
:1047A00020F591E0980F9093070899E0FE013A9662
:1047B000DE01119601900D929A95E1F7ED82FE824D
:1047C000BDE08B9FC00111248156984F29E0FE0166
:1047D0003196DC0101900D922A95E1F72FEF3FEF22
:1047E000FC0132872187D486C3866896E2E10C9467
:1047F000553470909E0790909D07A0907B01B090DB
:104800007C01872CA0E0B0E057E0552E662463942D
:10481000791015C080929E07AB57B14009F4B7CF0D
:10482000892D90E0FC01EE0FFF1FED56F84F11822D
:10483000108201968370992780939D07A8CF272D1A
:1048400030E0F901EE0FFF1FED56F84F4081518126
:10485000549EC001559E900D112485589E4FFC0119
:1048600000811181212C412C312CF801E30DF11D27
:10487000E30DF11D459155914115510589F521141F
:1048800089F1ABE7B1E0431408F0DC0114966C92B7
:104890001497F1E0AB37BF0709F4BCCF781007C01D
:1048A0008A179B0721F48394482D4370842E2F5F31
:1048B0003F4F822F8370782EABCFE1E0461757072A
:1048C00009F0E0E02E2A4394F501E40DF11DE40D1A
:1048D000F11D659175916115710579F73394C5CF17
:1048E000412CF2CFA0E0B0E0E2CF90E0811031C0E7
:1048F00041E050E0DA0102C0AA0FBB1F2A95E2F79F
:104900009D012150310982179307E1F010E081E009
:1049100090E00A2C01C0880F0A94EAF780959091E4
:104920008101892380938101911068C090919E0735
:1049300080919D07981709F465C00E947322111198
:1049400054CFB8CE611519F380E090E00E94E60ADA
:10495000DDCFAC010A2C02C0559547950A94E2F7C9
:104960009C012150310982239323892B41F540FF7B
:1049700026C080917D0190917E01892BE1F087E036
:10498000FE013196DF011D928A95E9F70E941F1AF8
:104990009C018B839C8384E08D8390917D01809129
:1049A0007E01792F9887898709811A8144E05E8189
:1049B0006F810E94C22110928001182DA8CF142F60
:1049C0001170A5CF40917B0150917C019FEF8FEF3B
:1049D00020E0A22EB12CFA01E20FF11DE20FF11D31
:1049E00065917591C616D70611F0A92EB82E672BC2
:1049F00009F484CE2F5F9A2D8B2DEBCF1111C7CEEA
:104A000010E094CF0E942C221092090810920808FE
:104A10000E94D30A94CFA6E0B0E0E1E1F5E20C9465
:104A200047340E941F1A8C018091FA069091FB0670
:104A30008017910779F019821A820E941F1ABC010F
:104A400049815A8180E090E00E9428231093FB0660
:104A50000093FA062696E4E00C946334A8E0B0E0F4
:104A6000E4E3F5E20C9439344090BD035090BE036A
:104A70006090BF037090C0030E94540D811509F42B
:104A80004BC0C301B2010E947E0B4B015C010E942E
:104A9000790D6093BD037093BE038093BF03909321
:104AA000C003A0914906E9E4F6E04A2F50E044240F
:104AB0004A94542C612C712C481859086A087B08B8
:104AC000A51333C04093490620918507122F137018
:104AD000111519F0122F1695169530917A01323072
:104AE00009F44BC290F5311137C010920A0160935E
:104AF000C4037093C5038093C6039093C70389E2F0
:104B0000E9E4F6E0AAEDB3E001900D928A95E1F7B1
:104B100081E080937A011CC00E94790D4B015C01F9
:104B200084189508A608B708B2CF218D328D421699
:104B300053066104710420F441505F5F3296C0CF88
:104B4000280D391D328F218FF8CF333009F41EC262
:104B50002896E2E10C94553480910901181328C07D
:104B600023704091080150E081E02417150609F4F4
:104B700080E080930C0180918A0790910B01981737
:104B800039F080930B0140E060E080E00E94BC09B6
:104B9000123009F478C070F4111111C080910C0129
:104BA000811559F040E060E080E00E94BC0905C03A
:104BB00081E0DFCF133009F421C180E037C02091BC
:104BC0000A018AE0289F802D11248983082F065F1F
:104BD000013308F000E30E94090D811519F0093135
:104BE00008F008E10E94090D811105C039813831B2
:104BF00010F488E18983609186077091870780911E
:104C000088070E94E608F62EE72ED82EB981AB2F32
:104C1000B0E0BD83AC83FC81F017F0F00E94090D79
:104C2000811509F4E6C081E0083138F690910A0157
:104C30009F5F90930A0181119CC182E080937A0169
:104C400080910C01811195C1111509F49DC10E943B
:104C5000090D0E94090D7CCFEC81FD81E65AFD4FC4
:104C6000808190910B018923811539F02D2D4F2DD5
:104C70006E2D8C819D810E94B909EC81FD81319658
:104C8000FD83EC83C8CF80900A018AE0889E802C47
:104C900011240AE0080D013308F000E30E94090D19
:104CA000811519F0093108F008E10E94090D811100
:104CB00005C028E1821610F468E1862E80910C016F
:104CC000811561F040E060E080E00E94BC09E9E10C
:104CD000F6E080E3DF011D928A95E9F780910A01F1
:104CE00081111BC08091C2039091C3030E941923BC
:104CF0008C839D8381E0EC81FD81799708F480E0CD
:104D00008093C1032C813D812931310530F00E940F
:104D10001F1A9093C3038093C203C12CD12C612C22
:104D200045E5442E5AEA552E33243394760136E075
:104D3000732EF701E653FE4F30813983381508F49E
:104D400045C0301708F042C0832F90E09D838C83CC
:104D5000FC01E65AFD4F808190910B01892381155A
:104D600009F433C0D701A75EB94F5D019C90692D4E
:104D7000242D621B08F460E070918707252D392DE2
:104D8000230F08F42FEF30918807822F880F820FAE
:104D90008E5F282F239F212D1124822F352D361B26
:104DA000632F0E94E608462F672F282F8C819D8154
:104DB0000E94B9098091C103811539F0292D332D45
:104DC000231B08F420E0D5012C9363947A94BFEF61
:104DD000EB1AFB0A7110ADCFEAE2CE16D10409F44A
:104DE0001DCFF6E0CF0ED11C2AE0621608F49ECF4C
:104DF00015CF81E0003309F019CFDFCE30910A01E1
:104E00008AE0389F802D11248A83865F89838133CD
:104E100010F080E389830E94090D811529F09981A2
:104E2000993110F0A8E1A9830E94090D811105C0F4
:104E3000BA81B83110F4E8E1EA832090DA033A81CC
:104E4000232F30E038872F83C901880F991FDC0199
:104E5000A653BE4F6D01412C512CAF81B981AB17C8
:104E600048F00E94090D811509F47FC081E0E981B5
:104E7000E831DBCEEF81F885E65AFD4F80819091D5
:104E80000B018923811549F1B0918607BA83E0911E
:104E90008707EB83F0918807FE8323EF33E03D83A0
:104EA0002C838AEDA82E83E0B82E312C8A2DEAEDD2
:104EB000F3E08E1B8215D0F0232D3E81239F212D00
:104EC0001124822F6A817B810E94E608462F672F7A
:104ED000282F8F8198850E94B9098F819885019626
:104EE00098878F8392E0C90ED11CB7CFD601D09698
:104EF0008C90D097F5018181881A9908D1966C9091
:104F00008185681A7708889C9001899C300D300D46
:104F10001124669CC001679C900D900D1124820F96
:104F2000931F0E946A09082F2091890731E0230FFF
:104F300008F42FEFAC81BD818D919D91BD83AC8331
:104F40007201829FE12C929FE00CF11C11249301CD
:104F5000A4016A817B81832D0E949A096A837B83E5
:104F6000382EBFEFAB1ABB0AA1CF81E0F981F03335
:104F700042CF111509F4ECCD6ACE109309012370CC
:104F8000209308010E94AC0D83E0C3CD8091C8033B
:104F9000811551F048E050E068E170E085E897E065
:104FA0000E9402351092C8038090C4039090C503FC
:104FB000A090C603B090C7030E94540D811581F0E4
:104FC000C501B4010E947E0B6B017C0120E1C21679
:104FD000D104E104F10408F4BBCD10927A01B8CDFC
:104FE0000E94790D6B017C01C818D908EA08FB08FA
:104FF000EDCF2F923F925F926F927F928F929F920E
:10500000AF92BF92CF92DF92EF92FF920F931F93D6
:10501000CF93DF93809108068115B9F180912A031F
:1050200090912B030E941923C29780F00E941F1AAF
:1050300090932B0380932A0387E094E090930604D7
:10504000809305040E94540D0E94ED178091030483
:1050500090910404892B59F5809188068115A9F057
:105060000E945E0B0091090610910A0620910B0622
:1050700030910C06601B710B820B930B6F3F7F4FBF
:105080008F4F9F4710F40E940217DF91CF911F911D
:105090000F91FF90EF90DF90CF90BF90AF909F90D7
:1050A0008F907F906F905F903F902F9008958091A8
:1050B0000806811589F2809107068111CDCF0E94E3
:1050C000141720910304309104042115310521F2B5
:1050D00010E041E050E0812F90E01A01012E02C063
:1050E000220C331C0A94E2F7B10162237323672B6D
:1050F00011F41F5FF0CF20910E0620FF94C0912F76
:10510000990F990F990F37E0390F80E023E09093C2
:10511000030180930601309304012093070124E6E4
:1051200030E047E050E061E071E088E70E94113232
:10513000892B09F091CF20E2129FA00111248091C8
:105140000E0680FF7CC0EAE0F3E080E2DF011D9202
:105150008A95E9F7A4EBB1E000EB11E088EBC82EEB
:1051600081E0D82E97E0592E772473948D91E80131
:1051700029918E01240F352F311D295F3B4FE82FD8
:10518000F0E0E65FFC4F80E090E0652C681A872C29
:10519000082E01C0880C0A94EAF77901A12CE701D6
:1051A000B9907E01B820662D6A19677070E0DB2D1A
:1051B000062E01C0DD0F0A94EAF79D2E71956195C8
:1051C00071096770772701C0B6946A95EAF79B2842
:1051D0006081962A9082A39468E0A612E0CF01969F
:1051E00031968830910589F6CA16DB0609F0BECFE4
:1051F00004E610E020E230E04AE053E060E488E7B3
:105200000E943932892B09F027CFE101C095D09552
:1052100080910304909104048C239D2390930404B3
:105220008093030419CF9695879596958795282F97
:10523000912F9295990F90763FE1390F68CF495F92
:105240005B4F04E610E020E230E0D8CFACE0B0E005
:10525000ECE2F9E20C943C34FE01319688E0DF0187
:105260001D928A95E9F788EBE82E81E0F82E8F01F0
:105270009CEBC92E91E0D92E3F01AA24A394B12C16
:1052800032EC832E31E0932EF70181917F018F3F25
:1052900009F43EC0F894E82FE295EF70F0E021A108
:1052A0008F70A50102C0440F551F8A95E2F7CA010D
:1052B000922F982B91A392A18095892382A3789411
:1052C00000C0ECEBF1E031E0512C21912F3F79F05F
:1052D000A22FA295AF70A05EB0E08C9190E02F70ED
:1052E00002C0959587952A95E2F780FF27C080E058
:1052F000582A330F8E169F0641F7F70182918F3F90
:1053000011F00E94C40850EA5A95F1F7D8015C9256
:105310000F5F1F4FCE14DF0409F0B6CF48E050E016
:10532000B30180ED93E00E94C134892B49F4809150
:10533000E5028115B1F10091D90315C0832FD8CFB3
:1053400088E0F301A0EDB3E001900D928A95E1F7BA
:105350000091D90381E08093E5020E941F1A909387
:10536000E4028093E3028091E3029091E4020E94C0
:1053700019230597B0F010E00F5E194F44E050E09C
:1053800060ED73E0C8010E94C134892B41F084E0D4
:10539000E0EDF3E0D80101900D928A95E1F71092CB
:1053A000E5020E94540D0091D90310E00F5E194FE1
:1053B000811509F4A8C07E01B9E0EB0EF11C84E070
:1053C000F70111928A95E9F7809187068A3008F0F3
:1053D00065C045EE54E1B701C8010E94380E811541
:1053E00009F47FC043E655E1B701C8010E94380EB9
:1053F000811509F476C04DE954E1B701C8010E9456
:10540000380E811509F46DC046EC54E1B701C801AE
:105410000E94380E811509F464C0109287068091AD
:10542000D80390E044E050E0B7018F5E994F0E94AE
:10543000C13421E02093E202892B09F044C080911D
:105440007207811591F080917307909174070E9403
:1054500019238536910548F083EE94E00E943810B8
:1054600081E080937107109272078091780781150F
:1054700089F08091790790917A070E9419238536E7
:10548000910540F082E00E948D1681E080937707BD
:10549000109278072C96EFE00C9458348091E0023B
:1054A0009091E1020E941923843F914008F091CF2E
:1054B0008091E202811519F284E0D7011D928A954C
:1054C000E9F71092E202E091D803F0E0EF5EF94FC5
:1054D00089859A85AB85BC8580839183A283B383BC
:1054E000AECF809187068F3F39F40E941F1A9093A8
:1054F000E1028093E002DCCF8F5F809387068A30E1
:1055000008F48DCFF2CFF80180819181A281B3811F
:1055100080939E0690939F06A093A006B093A10649
:1055200064E070E08EE996E00E94980A80939D0600
:10553000C090A206D090A306E090A406F090A50625
:105540008091DC029091DD02A091DE02B091DF0239
:10555000C816D906EA06FB06D1F0C092DC02D0924A
:10556000DD02E092DE02F092DF020E94540D811112
:105570000EC00E945E0BC61AD70AE80AF90AC0924A
:10558000F606D092F706E092F806F092F90688E067
:10559000E6EAF6E0A5E8B7E001900D928A95E1F71A
:1055A0008091AF06811519F00E94141773CF0E94E5
:1055B000021770CFCDB7DEB76B970FB6F894DEBF8A
:1055C0000FBECDBF85B7806885BF85B7806885BFB2
:1055D00084B7877F84BF0FB6F894A8958091600048
:1055E000886180936000109260000FBE80E890E0B8
:1055F0000FB6F89480936100909361000FBE82EC27
:1056000098E09093D3028093D2020E94400C0E94B3
:105610008F0C8091E20084608093E2007894809106
:10562000F406811599F08091E9001091EC008F70DB
:10563000179511271795182B1092E9008091E80013
:1056400083FD0E94E5101F701093E90082E084BD85
:1056500093E095BD9AEF97BD80936E001092F60689
:105660001092F7061092F8061092F9060E94090DA2
:1056700080930D010E94540D81110E94C3328091CC
:105680000D0180910D0191E08927880F880F80938B
:10569000D90394E0981B9093D80384EF0E94C40828
:1056A00085EF0E94C40886EF0E94C40887EF0E941D
:1056B000C4080CEB11E0D8018D918D018F3F11F0E2
:1056C0000E94C408B1E0023C1B07A9F788E0E1E1B1
:1056D000F6E0DF01282F1D922A95E9F7E0EDF3E0CF
:1056E000DF011D928A95E9F780E090E00E94FC348A
:1056F000863E9E4F11F00E94B21382E090E00E941D
:10570000EE348093720684E090E00E94FC34909323
:1057100091078093900783E090E00E94EE340E940E
:10572000AB0680910B080E9415160E948E0A1092FB
:10573000DA0340E150E06FEF70E083EF93E00E9406
:10574000D7341092490640E150E06FEF70E082E6F6
:1057500096E00E94D73480E090E00E94FC34863EC0
:105760009E4F21F00E94B2130E9497130E94F715DA
:1057700080918507843010F40E9497130E94540D85
:1057800091E08927880F80930E0680E880930D06AC
:105790000E946C316BE070E08DED96E00E94D816AF
:1057A000811509F43FC080910E0665E070E081FD2F
:1057B000C7C188ED96E00E94D816811599F16DE079
:1057C00070E086EC96E00E94D816811559F10E948F
:1057D0005E0BDC01CB01805A9541AF4FBF4F8093E8
:1057E000090690930A06A0930B06B0930C06E7E017
:1057F000F4E080E092E0DF019C011D9221503040F6
:10580000E1F7F0930604E09305048FEF9FEF909388
:1058100004048093030481E0809308068093880643
:10582000109207060E94540D811102C00E94C632D8
:105830000E9486180E94540D81112EC08FE696E0BA
:10584000909365018093640127E130E0309360011B
:1058500020935F0187E390E090936301809362015E
:1058600044E756E050936D0140936C01309368011A
:105870002093670190936B0180936A0141E858E19E
:1058800050937501409374013093700120936F0120
:10589000909373018093720180E090E00E94FC3449
:1058A000863E9E4F89F48FE090E00E94F6348B0193
:1058B000862F8F770E945A1807FB002700F9137074
:1058C000110F102B109395010E9405168EE091E0A8
:1058D0009093FD068093FC068091F406853059F480
:1058E0008091F406853009F42EC110920C080E94B4
:1058F000B9100E949B0D0E942629A3E7B6E0BE873F
:10590000AD87E1E1F6E0FA8BE98B22EC31E0388BF0
:105910002F87B9019F01FD019191D9018D919D01C1
:10592000DB014D91BD018423B6E0EB37FB0709F4A1
:1059300067C1981789F30E94540D8F8B1C861B86B4
:10594000E12CE989FA89F190FA8BE98BAF85B88966
:105950008D91B88BAF87F822ED85FE858191FE870A
:10596000ED878F1509F4DFC08F258E8BAB84BC8447
:10597000D12CCC24C3948E898C21811509F4C8C004
:105980002C2C2F20FF89F115A1F0D982EA820E94E8
:105990001F1A9C838B8321E02D8391E0211001C08D
:1059A00090E09E8349815A816B817C818D810E9428
:1059B0002823211439F0F501E653FE4F80818F3FF3
:1059C00009F059C1312C032D10E080914906830D57
:1059D0009927991F09976CF1E8E08E2E912C801A77
:1059E000910AB801665B794FA4018AE496E00E94AF
:1059F000CE34B8016E5A794FA40182E596E00E9438
:105A0000CE34A401440F551FB801660F771F6E599D
:105A1000794F82E696E00E94CE34B801665A794FFB
:105A2000A4018AE596E00E94CE3488E08319809331
:105A30004906311429F1409149063B89832F90E0B2
:105A4000242F30E0F901E75BF94FDC01AA0FBB1FFF
:105A5000A650BE4F5C915183880F991FDC01A6535D
:105A6000BE4FD1968C9181875B89518BF901EE0FE6
:105A7000FF1FE75BF94F128E118E4F5F409349066F
:105A8000211409F445C0809185078C7F883009F086
:105A90003FC0F501E653FE4F80818F3F09F438C0C7
:105AA000812C912C212C90E09C01220F331FD901D5
:105AB000A650BE4FB98FA88FF901E550FE4FFB8F5E
:105AC000EA8F9501275E394F3D8B2C8B8401312C59
:105AD000F801E653FE4F80818F3F61F0E210CFC0A6
