:100000000C9468050C9485050C9485050C942B3391
:100010000C9485050C9485050C9485050C94850538
:100020000C9485050C9485050C94932F0C946B30DF
:100030000C94001A0C9485050C9485050C94850588
:100040000C9485050C9485050C9485050C94850508
:100050000C9485050C946F2F0C9485050C948505E4
:100060000C9485050C9485050C9485050C948505E8
:100070000C9485050C9485050C9485050C948505D8
:100080000C9485050C9485050C9485050C948505C8
:100090000C9485050C9485050C9485050C948505B8
:1000A0000C9485050C9485050C9485050D000E00B7
:1000B000000000AF00AE00000000000000002F00B4
:1000C0000000000700070000123F123F1200242A20
:1000D0007F2A120036091E241B0018262912280028
:1000E000000007000000001E214000000040211E0B
:1000F000000014083E08140008083E08080000002C
:1001000030700000080808080800000030300000C7
:1001100020100C0201001E2925231E0000223F2072
:100120000000223129292600122125251A00181441
:10013000123F10001725252518001E25252518001B
:100140000131090503001A2525251A000629292948
:100150001E00000033330000000033730000081459
:10016000142222001414141414002222141408005F
:100170000201290502003E59555D3E003816111650
:1001800038003F2525251A001E21212112003F217C
:1001900021211E003F25252521003F0909090100D5
:1001A0001E2121291A003F0404043F0000213F21A1
:1001B0000000102020201F003F040C1221003F20CF
:1001C000202020003F0204023F003F020C103F00AD
:1001D0001E2121211E003F09090906001E212911A7
:1001E0002E003F09091926001225252912000101B8
:1001F0003F0101001F2020201F00071820180700C2
:100200000F300C300F0021120C12210003043804AF
:100210000300312925232100007F41410000010214
:100220000C1020000041417F000004020102040084
:10023000404040404000000103040000102A2A2AE8
:100240003C003F2422221C001C22222224001C22CB
:1002500022243F001C2A2A2A0C0000043E05050027
:100260000C5252543E003F080404380000003D0088
:1002700000002040403D00003F080814220000011B
:100280003F2000003E023C023C003E0402023C00D3
:100290001C2222221C007E1422221C001C2222145A
:1002A0007E003E0402020400242A2A2A12000002D0
:1002B0001F2200001E2020103E00061820180600F5
:1002C0000E300C300E002214081422000E5050483C
:1002D0003E0022322A262200080877414100000011
:1002E0007F000000414177080800180408100C0046
:1002F00000000000000000000000000000000000FE
:100300000000C0F0F88C86C6E7FFFFFFFFFFFFFE8E
:10031000FCFCF8E080000000F0F0F00000C0E0F02D
:1003200070700000000000000000000000000000ED
:100330000000000000000000F8F8F80000000000D5
:100340000000000000000000000000000000F8F8BD
:10035000F80000F8F8F8000000000080E07078680D
:100360006C64C7C7C7C7C7C7E73F1F0F3FFFFFFF83
:10037000FFFFFF3F0F000000FFFFFF1E3FFFF3E105
:10038000800000F8FCFE3636363EBCB8000E3EFE5D
:10039000F080F0FE3E0E0000FFFFFF060606FEFEA8
:1003A000FC7000E6F6F63636FEFEFC000000FFFFAD
:1003B000FF0000FFFFFF000000003C7F6360E0C023
:1003C000C0C0C0C0C0C0C0FFFFC06030180F030372
:1003D000030100000000000003030300000003030A
:1003E00003030001030303030303030100707039D7
:1003F0003F1F070100000000010303030303030381
:1004000001000001030303030303010000000303D1
:10041000030000030303001010100000000055004B
:1004200000003E635D5D637F417B77413E00001CC1
:1004300022221C003E0A003E0A00322A3C002628E6
:100440001E001C2A2C0000003F09360000001E215F
:100450002100000000003F0837001E2121001E215E
:1004600021003F090600213F2100222519001E21FD
:1004700021003F0936003F211E00213F21000F309F
:100480000F003E093E003F063F003F2020000501CF
:100490000902A10185020901A10005091901290824
:1004A0001500250195087501810205010930093102
:1004B0001581257F95027508810609381581257FEC
:1004C000950175088106050C0A38021581257F956E
:1004D0000175088106C0C005010980A101850319C5
:1004E000012AB700150126B700950175108100C0DB
:1004F000050C0901A101850419012AA00215012694
:10050000A002950175108100C005010906A1010531
:100510000719E029E7150025019508750181029565
:1005200001750881010507190029FF150026FF0044
:100530009506750881000508190129051500250192
:10054000950575019102950175039101C009023B62
:1005500000020100A0FA09040000010301010009E2
:10056000211101000122440007058103080001094F
:100570000401000103000000092111010001227B98
:10058000000705820320000112010002000000089C
:100590005759000200010102000114034B006500DD
:1005A0007900620061006C006C00330039000000CB
:1005B000100359006F0077006B0065006500730041
:1005C000000004030904000101010101010101010E
:1005D00002020202020202020203030303030303F4
:1005E00003040404040404040505050505060606C1
:1005F0000606070707070708080808090909090A7E
:100600000A0A0B0B0B0C0C0C0D0D0D0E0E0E0F0F22
:100610000F101011111112121313141415151616B0
:100620001717181819191A1A1B1B1C1D1D1E1E1F1F
:100630002020212222232424252626272829292A6E
:100640002B2C2D2D2E2F3031323233343536373896
:10065000393A3B3C3D3E3F40414243444546474892
:10066000494A4C4D4E4F50515354555658595A5B68
:100670005D5E5F616264656668696B6C6D6F707208
:10068000737577787A7B7D7E8082838587888A8C74
:100690008E8F91939596989A9C9EA0A2A3A5A7A9A8
:1006A000ABADAFB1B3B5B7BABCBEC0C2C4C6C9CB9F
:1006B000CDCFD1D4D6D8DBDDDFE2E4E7E9EBEEF055
:1006C000F3F5F8FAFDFF00DA0281FFD9F1DB20A48F
:1006D000A62EAF00A0C0D30000A1C8D30000AED5A5
:1006E00080A81F408D14200014001A000800150077
:1006F0001700000004001600070009000A000000AF
:100700001D001B000600190005000000E300E200C8
:10071000477E2B212C412A43130012000C001800A5
:100720001C00000028470F000E000D000B00000009
:100730002D00370036001000110000003944010080
:10074000010001004A7EE10022022402230221026C
:10075000380000001F02200225022E022E00000099
:10076000350035021E0238020000000000000000C3
:100770000000000000002A003702360230022F027B
:100780003100000033023300497E26022D020000B2
:100790003402340030002F0031020000000001005C
:1007A000010001000000000000003B003C003D0093
:1007B0003E0000001E001F0020002100220000005B
:1007C00000000000000000000000000030013101C6
:1007D0000000E0024B7E2A0043004200410040003E
:1007E0003F00000027002600250024002300000011
:1007F0000000370036003101000000000000010059
:1008000001000100000000000A03457E447E417E95
:1008100000000000E20200000000E100427E000053
:100820000000000000000000437E0000707C727C2D
:10083000717C000000002A00C2001704070415069E
:10084000C1000000467E4F005200510050000000E1
:10085000000000000000000000000000AE000100E9
:1008600001000100407E00000A7E00000000000040
:100870000000000000000000000016090000000059
:1008800000002D082E08AA00A9000000487E0000E4
:100890000000000000000000000000000000000058
:1008A0000000000000000000000000000000000048
:1008B0000000000000000000000000000000010037
:1008C0000100010000000000000000000000000026
:1008D00000000000E1001D080608190809080000D2
:1008E0000000000000000000000000000000000008
:1008F000000000000000000000000000D300000025
:10090000C100000028002652D200D10000000000E3
:1009100000000000D500D4000000000039000000F5
:100920000000000065520000000000000000000010
:1009300000000000000000000000000000000000B7
:1009400000000000000000000000000000000000A7
:100950000000000000000000000000000000000097
:1009600000000000000000000E7E0D7E0F7E0000E3
:100970000000000000000000000000000000000077
:100980000000000000000000000000000000000067
:100990000000000000001D080608190809080000F2
:1009A0000000000000000000000000000000000047
:1009B0000000000000000000000000000000000037
:1009C0000000000000000000000000000000000027
:1009D0000000000000000000000000000000000017
:1009E00000000000000000006162636465666768E3
:1009F000696A6B6C6D6E6F707172737475767778EF
:100A0000797A3132333435363738393052454254B9
:100A10005F2D3D5B5D5C233B27602C2E2F0000008B
:100A200000000000000000000000000000000000C6
:100A300000000000000000000000000000000000B6
:100A4000007E0F00D4FFFFFFC70000007800000009
:100A500000000000002A2B28000000000000000019
:100A6000000000000000000029000000002C1E34DF
:100A700020212224342627252E362D3738271E1FE5
:100A8000202122232425263333362E37381F040510
:100A9000060708090A0B0C0D0E0F1011121314157E
:100AA000161718191A1B1C1D2F3130232D3504055C
:100AB000060708090A0B0C0D0E0F1011121314155E
:100AC000161718191A1B1C1D2F3130354C20200009
:100AD00011241FBECFEFDAE0DEBFCDBF12E0A0E0F1
:100AE000B1E0EAE8FDE602C005900D92A43DB10731
:100AF000D9F728E0A4EDB2E001C01D92A631B207FB
:100B0000E1F70E94F12A0C9488360C940000AC01A5
:100B10009B01860F971F2095309557FD07C028230E
:100B2000392337FF09C08FEF9FE70895282B392B12
:100B300037FD02C080E090E808959C0121388FEFD6
:100B400038072CF02038310524F4822F089581E8ED
:100B500008958FE70895ABE0B0E0E1EBF5E00C9489
:100B60005A348C01FC016281F381FB87862F87FD5B
:100B700081959F2F97FD9195890F9927991FC12CDA
:100B8000D12C20E4E22EFE2C8D339105C4F48F315C
:100B900091050CF059C0863091050CF05CC00297AD
:100BA0008430910508F057C0880F991F880F991F4E
:100BB000FC01ED53FD4FC080D180E280F380062E12
:100BC000000C770B880B990B0E948F35A7019601BB
:100BD00069837A838B839C8369817A818B819C81F1
:100BE0000E94F3352B013C01C301B2010E9457352D
:100BF0001B01CB010E949D05F8018283FB856F2FAD
:100C0000FF0F770B880B990B0E948F35A701960178
:100C10004B015C01C501B4010E94F3356D837E83F5
:100C20008F8398876D817E818F8198850E9457354B
:100C300069877A8789859A850E949D05F801838353
:100C40002B96E2E10C947634C12CD12C90ECE92E59
:100C50009FE3F92EB4CFC12CD12C80E8E82E8FE38E
:100C6000F82EADCFEF92FF920F931F93CF93DF93A8
:100C7000FC01EB01042F80919501811101C084E0FA
:100C80008150990B21E030E002C0220F331F8A957A
:100C9000E2F780819181B9010E949D347B019183AB
:100CA000808382819381B9010E949D3493838283E2
:100CB000CB010E949D05182F8D83C7010E949D05C1
:100CC000982F91959C83011519F011951D838C83A4
:100CD00080919601811539F0813039F0CDB7DEB7BA
:100CE000E6E00C9482341D82F9CF1C82F7CF80910C
:100CF0008301F90180830895CF93DF93E3E8F1E066
:100D000083819481A581B681E90188839983AA832F
:100D1000BB831482138216821582DF91CF910895CE
:100D20009C01FB019A9581159F4140F4832F8170AE
:100D300031FD82E032FD84600995089580E0FCCFAA
:100D4000982F92959F7024E0911102C020E0982F77
:100D5000892F86958695811511F02E5F982F892F02
:100D60008695820F089580930C080895292F983056
:100D700090F5863080F590E036E0239F800D911D40
:100D80001124282F277041E001C0440F2A95EAF76B
:100D900023E0969587952A95E1F7FC01EE0FFF1F5A
:100DA000E80FF91FE55AF84F20E030E070E051916C
:100DB000DF01CB01022E02C0969587950A94E2F7D7
:100DC000817081958527842385278E932F5F3F4FE0
:100DD0002330310561F70895292F983078F5863052
:100DE00068F590E036E0239F800D911D1124682F57
:100DF000677023E0969587952A95E1F7FC01EE0F41
:100E0000FF1FE80FF91FE55AF84F40E050E080E07F
:100E1000219130E0062E02C0369527950A94E2F71C
:100E200021703327042E01C0220F0A94EAF7822B87
:100E30004F5F5F4F4330510559F7089580E00895A3
:100E40008091090790910807981301C008958F5F5A
:100E50008770FACF982F909580910E088923809300
:100E60000E0808959C01811542E59407B8F5811597
:100E700060E5960708F0BEC0803E9105E0F48D3C29
:100E8000910508F093C0883A910568F4853A910578
:100E900008F07DC08130910521F00497813A9105D9
:100EA00038F4C9010895885A91094B9708F473C022
:100EB00020E030E0F6CF8115904468F4211580E2FF
:100EC000380708F0ADC0283E310558F3C9019A959E
:100ED00081159F41E5CF3F70306AE3CF803862E5EE
:100EE0009607C8F5803672E5970708F068C0203489
:100EF00082E53807D0F4203292E5390708F058C06F
:100F0000822F8695869540E2849FC001112423702C
:100F100041E050E0BA0102C0660F771F2A95E2F760
:100F20009B01282B392B3D68BCCF822F8695869557
:100F3000877070E2879FC0011124237041E050E068
:100F4000BA0102C0660F771F2A95E2F79B01282B92
:100F5000392B3C68A6CF803C72E5970760F48F710F
:100F6000203A324508F040C090E0982F88279C0135
:100F7000246F306A96CF805C9245809708F098CFB6
:100F8000322F222722273F71206F306A8ACF2452C6
:100F90003109306486CF285AE22FF0E0EE0FFF1FB0
:100FA000E357FD4F2081318134647BCF306579CFA9
:100FB0002F7130E0322F2227216F306A72CF869551
:100FC0008695877040E2849FC0011124237041E020
:100FD00050E0BA0102C0660F771F2A95E2F79B0125
:100FE000282B392B3A685DCF90E0982F88279C01F9
:100FF000306257CF43E0880F991F4A95E1F7882761
:101000009F70622F6F71462F50E024FF04C070E183
:10101000679FA0011124842B952B9C01306941CF3F
:10102000832F8F71382FE4CF7830B8F46630A8F46E
:101030008830B0F4E62FF0E096E0799FE00DF11DE6
:10104000112490E3899FE00DF11D1124EE0FFF1F85
:10105000E851F94F85919591089580E090E00895C9
:1010600081E0FCCFA0E0B0E0E8E3F8E00C94653468
:101070007C0100910D0880910C08082BC7E0D0E09E
:1010800010E0C8010C2E02C0959587950A94E2F7EE
:1010900080FD09C02197A8F7D12C8D2DCDB7DEB7E3
:1010A000E7E00C948134DC2EB7018C2F0E941408E9
:1010B0000E943207019771F3F0CFEF92FF920F93E6
:1010C0001F93CF93FC010781108501151105A1F431
:1010D0008581E080F1808115B1F06115A1F0C70133
:1010E0000E943208C82F682FC7010E94B606B701B8
:1010F0008C2F0E9414088C01C801CF911F910F9171
:10110000FF90EF900895C7010E94EC06C82FEFCF23
:10111000CF93DF93D82FC92F0E9432086D2F7C2FD9
:101120000E9414080E943207DF91CF910895FC01BC
:1011300084818115B1F0878190850097A1F00E948C
:101140003207282F92959F709630C1F088F4925FF5
:101150009F70923030F4203FD9F060F481E0283E57
:1011600060F080E00895808191810E948808E9CF35
:101170009A5FEECF81E0243FA1F7089591E0813F8F
:1011800009F090E081E0283E08F080E0892B089586
:1011900081E0089580E00895F894E82FE295EF70DB
:1011A000F0E041A18F7021E030E0B90102C0660F8C
:1011B000771F8A95E2F7CB01962F9095942391A300
:1011C00092A1892B82A378940895EFE9F6E08589AE
:1011D000809346018689809359010895A0E0B0E08C
:1011E000E4EFF8E00C946534372FE82FF0E0EA5391
:1011F000FA4F71110AC0E4918E2F2E2F6E2F722F8D
:10120000CDB7DEB7E7E00C948134062F10E0E72E6F
:10121000F12CD4902D2D86E0689FE0011124EFEF92
:10122000F0E0CE01BF010E944634000F111F45E5DA
:10123000469FC001479F900D1124081B190B402F9A
:10124000440F400F8F010E191F09D09ED001D19E6F
:10125000B00D11248B2F349F80011124012F1127F1
:101260007F01E01AF10A8701D09E7001D19EF00C37
:1012700011248F01041B1109A801349F8001359F9F
:10128000100D1124012F1127E01BF10BDE9EA00190
:10129000DF9E500D1124E52F63307105C1F0CC3F66
:1012A000D34058F461307105B1F06230710509F036
:1012B000A5CFED2D2B2F852FA1CF6430710571F0B7
:1012C0006630710509F49ACFEB2F8F2D97CF2B2F16
:1012D0008D2DEF2D93CFED2D2F2D90CFEB2F8D2D2D
:1012E000252F8CCFAC018230910508F408959FEF33
:1012F000413E8EE1580740F4CA0125E09695879556
:101300002A95E1F798E0980F61E0E62FE90FFF27B3
:10131000FF1F9F0135952795822F229FF001239F64
:10132000F00DF00D11244E175F0738F49FEF920F68
:10133000961758F78FEF860F08952F3FE9F361E076
:10134000620FF6CFEF92FF920F93970195E0099FFE
:10135000200D311D1124211591E0390710F02FEFD8
:1013600030E02095382F320F08F43FEF832F0F9194
:10137000FF90EF9008959091CA03982B9093CA0321
:1013800008950E94240D0895FF920F931F93CF9309
:10139000DF93182F062FF42EC0E0D0E02F2D402F22
:1013A000612FCE010E94C1092196C033D105B1F74A
:1013B000CDB7DEB7E5E00C94833480918707837066
:1013C000811110927A01809187078C7F8093870723
:1013D0000895982F862F209187072370211589F073
:1013E000911581F0943080F49F73990F990F20919B
:1013F00087072370922B9093870710927A010E949F
:10140000BB09089591E0F1CF93E0EFCF809187077A
:10141000869586958F5F843008F081E061E00E94B8
:10142000E909089580918707869586958A9509F43C
:1014300083E061E00E94E9090895982F822F2091AE
:1014400087072370211559F09093880760938907C7
:101450004E3708F04DE740938A070E94BB09089574
:10146000E7E8F7E0818190E021E04381628108961E
:101470000E941D0A0895E7E8F7E0818121E0438199
:1014800062818850990B0E941D0A0895E7E8F7E0F1
:10149000628120E1620F08F46FEF818121E04381D6
:1014A00090E00E941D0A0895E7E8F7E0628120E1DC
:1014B000621B08F460E0818121E0438190E00E949A
:1014C0001D0A0895E7E8F7E0438120E1420F08F4A0
:1014D0004FEF818121E0628190E00E941D0A089512
:1014E000E7E8F7E0438120E1421B08F440E0818116
:1014F00021E0628190E00E941D0A0895E7E8F7E08C
:10150000248130E1230F08F42FEF248381E00E942F
:10151000BB090895E7E8F7E0248130E1231B08F4D4
:1015200020E0248381E00E94BB0908951092BE034D
:101530000895FA01811511F009950895FB01FCCF7A
:10154000FC01680F791F8FEF41E39191892728E013
:1015500030E0982F990F87FF09C0892F84272150E9
:101560003040B9F7E617F70781F70895892FF7CFCD
:1015700063E070E083EB96E00E94A00A9091B206CF
:10158000891318C0E091B306EC30A4F488E0E802B7
:10159000F0011124EA5EFE4F0680F781E02D3097BE
:1015A00049F026ED36E04091B50666EB76E0809195
:1015B000B4060995089510929E0710929D072091F8
:1015C000800190917F0180918101211102C090E002
:1015D00080E090937F01809381010895AC01309168
:1015E000A00760919F07232F621301C00895822FE7
:1015F00090E0FC01EE0FFF1FEB56F84F0190F081D9
:10160000E02DE417F50791F467E0649FF001659F12
:10161000F00D1124E558FE4F41E044832313E6CF3B
:101620000196837099278093A00708950196282F2B
:101630002370DACFA3E0B0E0E0E2FBE00C946A3480
:101640009C018091090390910A0382179307A1F0EE
:1016500030930A0320930903E091FE06F091FF0600
:10166000309751F083E089833B832A830680F7819A
:10167000E02DCE01019609952396E2E00C94863484
:10168000A3E0B0E0E6E4FBE00C946A349C018091B6
:1016900007039091080382179307A1F03093080382
:1016A00020930703E091FE06F091FF06309751F07A
:1016B00084E089833B832A830680F781E02DCE0175
:1016C000019609952396E2E00C9486342FB7F8949E
:1016D00060910303709104038091050390910603C8
:1016E0002FBF0895CF93C82F809190018C1751F090
:1016F0000E94660B60939101709392018093930115
:1017000090939401C0939001CF9108950F931F93EC
:101710008B019C014FB7F89460910303709104030F
:1017200080910503909106034FBF601B710B820BE4
:10173000930B1F910F910895809102030895FC016E
:101740009B018091F8029091F9028617970740F06B
:10175000672B29F48091E8008E778093E800C90117
:1017600040E0009741F4411106C08091E80082FFFB
:101770002FC080E008952091F6062115A9F12530AB
:10178000A9F12091E80023FD2DC02091E80022FD61
:10179000ECCF2091E80020FFE4CF3091F3002091BE
:1017A000F200009719F02830310558F041E0283058
:1017B000310509F040E02091E8002E772093E80001
:1017C000D0CF41914093F10001972F5F3F4FE9CF78
:1017D0008091F606811541F0853041F08091E80056
:1017E00083FFC3CF81E0089582E0089583E00895E8
:1017F0008091F20287FF13C08091E80082FF06C04B
:101800008091E8008B778093E80008958091F60638
:101810008111F2CF08958091F6068115D9F3809158
:10182000E80080FFF8CF8091E8008E77ECCF209120
:10183000E4003091E50095E6A9012091EC00822FAB
:10184000817020FF06C08091E80080FF06C080E024
:1018500008952091E80022FD1AC08091F6068115B6
:1018600089F0853089F08091EB0085FD0FC02091D3
:10187000E4003091E50042175307F9F29A95E1F63A
:1018800084E0089582E0089583E0089581E008955A
:10189000E8EDF0E080818E7F80831092E20010926C
:1018A000DA001092E100A0EEB0E08C9181608C93A0
:1018B00080818F77808319BCA7EDB0E08C918E7FFB
:1018C0008C9380818F7E80831092F1020895982FEF
:1018D0009093E900891771F07091EC002091ED0070
:1018E0005091F00021FD09C09F5F973089F78093E8
:1018F000E9000895762F242F50E03091EB003E7FD1
:101900003093EB003091ED003D7F3093ED0030914E
:10191000EB0031603093EB007093EC002093ED000E
:101920005093F0002091EE0027FDDECF0895A0E057
:10193000B0E0EDE9FCE00C946434C8EDD0E08881BF
:101940008F7E8883E7EDF0E080818160808384E092
:1019500082BF81E08093F10288818E7F888302EECE
:1019600010E0F80110821092DA0081EEC82ED12C1E
:10197000F601108288818F778883888180688883C8
:1019800088818F7D888319BC1092F6061092F00230
:10199000109212061092EF0290EEE92EF12CF70150
:1019A00080818B7F808388818160888342E060E0D2
:1019B00080E00E94670CF60180818E7F8083F801B1
:1019C000808181608083808188608083F70180814D
:1019D0008E7F8083888180618883CDB7DEB7E8E021
:1019E0000C948034E09109079091080729E0E913ED
:1019F00002C080E00895AE2FB0E02E9FF0011124C8
:101A0000E65FF84F3181361306C03081381303C0CA
:101A10003581341304C0FD013196E770E8CF81E0D1
:101A2000089525982D9A869A8E9885E08A95F1F7E3
:101A3000000083B186988E9A90EA9A95F1F7002477
:101A400085FF0394802D0895FF920F931F93CF93EA
:101A5000DF93EC01F62E042F122F0E94110D81113D
:101A600023C0C831D1051CF16897FE01EE0FFF1F9E
:101A7000DF01AC0FBD1FA25DBC4F11968C91119779
:101A80008F1107C08C91801304C012968C9181171E
:101A900071F081E08093BE03EC0FFD1FE25DFC4F0F
:101AA000F1820083128303C0C831D105F4F2CDB7AF
:101AB000DEB7E5E00C9483348091F706811115C000
:101AC00088EC90E02091E30027FD16C0EFE3FCE9ED
:101AD0003197F1F700C000000197A1F782E08093F1
:101AE000F7060E94480C1092F60681E09091F706E6
:101AF000913031F080E0089581E08093F706F5CFD2
:101B00000895CF92DF92EF92FF920E945C0D8115B3
:101B100059F00E94660B6B017C01C701B601FF9072
:101B2000EF90DF90CF9008950E94660BC090F8066A
:101B3000D090F906E090FA06F090FB06C60ED71E8C
:101B4000E81EF91EEACF0E945C0D811559F0E09164
:101B5000FE06F091FF06309729F00190F081E02D0C
:101B60000995089580E008958091BE03811541F1A3
:101B7000539A3BB1377F2BB128604FB7F8948EE270
:101B800093E0FC010196508168E02BB9000000C091
:101B900057FF3BB9550F000000C000C000C03BB963
:101BA00000C06A9591F753E08E3B950751F74FBF00
:101BB0008FE594E00197F1F700C000001092BE039A
:101BC00008950F931F93CF93DF938B01EA019091B8
:101BD000F606943059F58093E9008FEF9091E80074
:101BE00095FD06C095ED9A95F1F700008A95B1F73D
:101BF0008091E80085FF1AC00E94170C811111C066
:101C00008091E80085FD06C08091E8008E77809382
:101C1000E800F2CFF80181918F018093F1002197C4
:101C200079F78091E8008E778093E800DF91CF917B
:101C30001F910F910895CF93DF93D82FC92F48E0BC
:101C400050E0682F792F81E00E94E10D88E0ED2FB0
:101C5000FC2FAAEFB2E001900D928A95E1F7DF9197
:101C6000CF910895BC0146E050E082E00E94E10D72
:101C70000895BC0143E050E082E00E94E10D089528
:101C8000A0E0B0E0E6E4FEE00C946234182F092FE7
:101C9000B62EA72E7A01809189069AE0C92ED12C02
:101CA0008A3018F0CC24C394D12CC1E0D0E06B2D45
:101CB0007A2D812F902FF7010995811116C0219659
:101CC000CC16DD0694F0CC9FC001CD9F900D900DF9
:101CD000112420E030E045E34A95F1F700002F5F42
:101CE0003F4F28173907B9F7E2CFCDB7DEB7EAE0A3
:101CF0000C947E3490916E078091CD03981308C0A8
:101D000080916F07811519F19091CE038917F9F031
:101D1000E091FE06F091FF06309799F581E0209161
:101D20006E0796E0EDE6F7E0DF01392F1D923A9558
:101D3000E9F720936E07ACECB3E001900D929A9511
:101D4000E1F791E0211101C090E0892B0895809185
:101D50007007811521F09091CF038913D9CF80911D
:101D60007207811521F09091D1038913D1CF809111
:101D70007107811521F09091D0038913C9CF80E0BC
:101D8000CECF82E080936D070480F581E02D8DE653
:101D900097E00995C3CF815D883090F440916E073C
:101DA00021E030E0F90102C0EE0FFF1F8A95E2F753
:101DB000CF01611531F0842B80936E070E947A0E5B
:101DC000089580958423F8CFAEE1B0E0EAEEFEE01E
:101DD0000C946A3440916D0750916E0760916F07C3
:101DE0007091700780917107909172070E94CF18CF
:101DF00020936D0730936E0740936F0750937007E1
:101E0000609371077093720786E0EDE6F7E0DE01FC
:101E1000179601900D928A95E1F786E0FE013796BC
:101E2000DE011D9601900D928A95E1F786E0FE0194
:101E30003D96DE01119601900D928A95E1F786E0BC
:101E4000FE013196ADE6B7E001900D928A95E1F77B
:101E500086E0EDE6F7E0DE01599601900D928A9555
:101E6000E1F786E0FE017996DE01179601900D926A
:101E70008A95E1F786E0FE013796DE011196019022
:101E80000D928A95E1F786E0FE013196DE015396C8
:101E900001900D928A95E1F786E0FE017396DE01CE
:101EA000179601900D928A95E1F786E0FE0137962C
:101EB000ADE6B7E001900D928A95E1F70E947A0EA7
:101EC000811102C08091CB031092CB036E96E2E0A9
:101ED0000C94863480910E0890919407892B8093FE
:101EE000D60290918F07911591F0892B8093D6029D
:101EF00020E088ED92E0FC013081019631112F5FE6
:101F000032E08E3D9307B9F7211110928F0748E018
:101F100050E060E077E086ED92E00E94E234892BA9
:101F2000A9F088E0E6EDF2E0A0E0B7E001900D92C4
:101F30008A95E1F7E091FE06F091FF06309731F0C7
:101F40000280F381E02D86ED92E0099508958115D8
:101F500039F090910E08892B80930E080E946A0F29
:101F60000895811539F090919407892B80939407F7
:101F70000E946A0F0895811521F00E942A070E948D
:101F80006A0F0895811541F08095909194078923F7
:101F9000809394070E946A0F08950F931F93CF9325
:101FA000C82F811539F18CEF8C0F813AA8F508ED17
:101FB00012E0F8018191C81709F122E0EE3DF20725
:101FC000C9F7EFEF80E0D8019D918D01C91781F02D
:101FD000EF3F19F4911101C0E82F8F5F863099F718
:101FE000EF3F31F00E2E000CFF0BEA52FD4FC28383
:101FF0000E946A0FCF911F910F910895E8EDF2E0D2
:102000008191C81302C0DF011E9232E0EE3DF3075A
:10201000B9F70E946A0FD5CF80E28C0F883068F440
:10202000C77081E090E001C0880FCA95EAF7C091BF
:102030000E08C82BC0930E08DBCF8BE58C0F8330C6
:1020400038F42C2F2452330BC9010E941A0BD2CF23
:10205000E8E5EC0FEB3150F4F0E0EE0FFF1FE35733
:10206000FD4F808191810E94400BC4CF83E38C0F90
:10207000833108F0BFCF61E08C2F0E94CB0EBACF26
:10208000CF93C82F61EB7FE00E9490068C2F0E94B7
:10209000CD0FCF9108958115C9F19CEF980F913A1A
:1020A00070F4E8EDF2E09191891302C0DF011E9215
:1020B00092E0EE3DF907B9F70E946A0F089590E2A9
:1020C000980F983050F4877091E001C0990F8A956D
:1020D000EAF7892F0E942A07EFCF9BE5980F9330EC
:1020E00028F480E090E00E941A0B089598E5980F7C
:1020F0009B3128F480E090E00E94400B089593E328
:10210000980F933118F460E00E94CB0E0895CF939E
:10211000DF93EC010E944B1062EC7FE0CE010E9445
:102120009006DF91CF910895CF93DF93D82FC92FD9
:102130000E9440108D2F9C2F0E948710DF91CF911D
:1021400008950F931F93CF93C82F00E510E08933B4
:1021500011F000E010E08C2F0E94CD0F0115110549
:1021600039F48C2F0E944B10CF911F910F9108953D
:102170008FE99FE00197F1F700C0000001501109BD
:10218000EDCFE8EDF2E086E0DF011D928A95E9F7F8
:1021900080E090E00E941A0B80E090E00E94400BEB
:1021A000109294070E946A0F089510920E080E94E0
:1021B000C1102FEF84E39CE0215080409040E1F774
:1021C00000C0000088E19AE00FB6F894A8958093CB
:1021D00060000FBE90936000FFCFAAE2B0E0E3EF93
:1021E000F0E10C94693482EF92E0FC0101962091B9
:1021F000F100208322E08A3F9207B9F78091F30231
:10220000893009F458C0C8F4823009F4B4C083306E
:1022100009F483C0813081F18091E80083FFE8C038
:102220008091F2029091F3029A3008F0E1C0E92F18
:10223000F0E0E657F94C0C94D3348A3009F48AC0A4
:102240008B3051F78091F202813231F78091F602A2
:102250009091F702892B01F78091E800877F8093A6
:10226000E8000E94F80B8091F40280930001109224
:102270000E080E94C110D0CF8091F202813A61F61F
:102280008091E800877F8093E8008091F60290912A
:10229000F702892B61F060E080E090E070E00E943E
:1022A0009F0B8091E8008B778093E800B5CF68E0C2
:1022B0008AEF92E0F3CF8091F202813209F0ACCF45
:1022C0008091F6029091F702029708F0A5CF8091D5
:1022D000E800877F8093E8008091E80082FF18C0C3
:1022E0009091F3008091F200029731F48091F10017
:1022F000813011F0863021F48091F1008093020347
:102300008091E8008B778093E8000E94F80B84CFDF
:102310008091F6068111E0CF7FCF8091F202813A61
:1023200009F07ACF8091F6029091F702892B09F09B
:1023300073CF8091E800877F8093E8008091E80068
:1023400080FFFCCF809100018093F1008091E80034
:102350008E77D9CF8091F202813209F05DCF8091E2
:10236000E800877F8093E8000E94F80B8091F502D7
:102370008093EE0251CF8091F202813A09F04CCF66
:102380008091E800877F8093E8008091E80080FFDB
:10239000FCCF8091EE02D8CF803889F0823841F5A9
:1023A0008091F6028F70873018F58093E900809154
:1023B000EB0085FB882780F91092E90006C0809128
:1023C0001206880F9091EF02892B9091E800977F79
:1023D0009093E8008093F1001092F1008091E80062
:1023E0008E7723C0811116C08091F402813011F1E3
:1023F0008091E80083FF0AC08091E800877F809386
:10240000E8008091EB0080628093EB00AA96E3E005
:102410000C948534823061F78091F402811589F043
:102420001092E9008091E800877F8093E8000E9485
:10243000F80BDECF81E0933009F080E08093120644
:10244000EFCF8091F6028F702FEF280F263080F6A5
:102450008093E9002091EB0020FFE2CF933031F42C
:102460008091EB0080628093EB00DACF9091EB00DB
:1024700090619093EB0021E030E0A90102C0440F8D
:10248000551F8A95E2F74093EA001092EA00809186
:10249000EB008860E8CF8111ABCF1091F4021F7779
:1024A0008091E3008078812B8093E3008091E800A5
:1024B000877F8093E8000E94F80B8091E80080FFFE
:1024C000FCCF8091E30080688093E30083E01111EA
:1024D00001C082E08093F6068BCF8058823008F0EE
:1024E00087CF2091F4023091F5022C3D53E035075F
:1024F00099F583E08A838AE289834FB7F894DE01F5
:10250000139620E03EE051E2E32FF0E050935700B5
:10251000849120FF03C082958F703F5F8F708A3057
:10252000C8F0895C90E08D939D932F5F243161F713
:102530004FBF8091E800877F8093E8006AE270E0F7
:10254000CE0101960E949F0B8091E8008B778093CB
:10255000E8004ECF805DE6CF832F99278330910529
:1025600029F160F48130910509F475C0029709F0F2
:102570003FCF8BE390E0EDE4F5E02CC02091F60234
:102580003091F7028132910509F459C0829709F020
:102590002FCF2115310509F468C02130310509F02C
:1025A00027CF8BE790E0EEE8F4E014C0C90199274B
:1025B0002130A9F182309105D1F1892B09F018CF92
:1025C000E2ECF5E0E4918E2F90E0E2ECF5E000978C
:1025D00009F40ECF2091E800277F2093E800209196
:1025E000F8023091F9028217930708F49C0140E049
:1025F0002115310509F03EC041113CC08091E80031
:1026000082FDA2CF8091F606811509F49DCF853019
:1026100009F49ACF8091E80083FFF0CF95CFE0EBEB
:10262000F5E0E4918E2F90E0E0EBF5E0D0CFEAE921
:10263000F5E0E4918E2F90E0EAE9F5E0C8CF2115AE
:10264000310571F02130310509F0D2CE89E090E0FA
:10265000E8E7F5E0BFCF82E190E0E8E8F5E0BACF47
:1026600089E090E0EFE5F5E0B5CF84E490E0E9E0C3
:10267000F5E0B0CF8091F606811509F465CF85307D
:1026800009F462CF8091E80083FD5ECF8091E8007D
:1026900082FDB4CF8091E80080FFAACF9091F30033
:1026A0008091F2002115310519F08830910550F024
:1026B00041E0089709F040E08091E8008E77809330
:1026C000E80096CF44914093F100319621503109B2
:1026D0000196E8CF803809F08BCE8091E800877FA3
:1026E0008093E8008091F0028093F10077CE811111
:1026F0007FCE1091F402123008F07ACE8091E8007B
:10270000877F8093E8001093F0020E94F80B111568
:1027100081F084E08093F60642E061EC81E00E9463
:10272000670C42E261EC82E00E94670C8091F60641
:102730005FCE8091E30087FDECCF81E0EBCFE7E84F
:10274000F7E089E080838091AE019091AF01A09184
:10275000B00181839283A3838FE784838FEF858386
:1027600048E050E068E170E0CF010E94233510920C
:10277000CA030895A8E0B0E0E0ECF3E10C946A34F9
:1027800066EE7EEF80E090E00E94513560E082E0EE
:1027900090E00E94333560E083E090E00E943335A2
:1027A00010920C0860E074E184E090E00E945135E2
:1027B00060E086E090E00E9433356FEF87E090E0C4
:1027C0000E94333540E050E0BA0188E090E00E947A
:1027D000453560E084E290E00E94333560E087E1B7
:1027E00090E00E94333560E08CE090E00E94333549
:1027F00060E08DE090E00E94333519821A821B82DE
:102800001C821D821E821F82188648E050E068E10B
:1028100070E0CE0101960E94233540E050E0BA01FD
:1028200080E290E00E94453540E050E0BA018FE040
:1028300090E00E94453540E050E0BA0183E190E02D
:102840000E9445352896E2E00C948634A0E0B0E082
:10285000ECE2F4E10C946434FA0169017801C82FC8
:10286000880FDD0B3097B9F0DE0193E0AA0FBB1F94
:102870009A95E1F7AA5EBE4F11968D919C911297A1
:102880008156994F2C91422F50E0E217F10508F440
:10289000AF010E94EF34CE010E94D233182F811570
:1028A000D9F0E114F104C1F083E0CC0FDD1F8A956B
:1028B000E1F7FE01EA5EFE4F8381482F50E0E81603
:1028C000F10408F4A701CA5EDE4F6C817D81615678
:1028D000794FC6010E94EF34812FCDB7DEB7E8E013
:1028E0000C948034A0E0B0E0E8E7F4E10C946234AA
:1028F000F82EEB01A42ED22EE32EB02EC12E68812D
:1029000079818A819B810E94860B643671058105DD
:10291000910510F4A11499F000E010E020E030E0FF
:102920004B2D5C2D6D2D7E2D8F2D0E942614811533
:1029300039F00E94660B688379838A839B8381E0E8
:10294000CDB7DEB7EAE00C947E34A9E0B0E0EBEA64
:10295000F4E10C94683488E0E7E8F7E08E010F5F5B
:102960001F4FD80101900D928A95E1F7198649E031
:1029700050E068EA76E0C8010E94E23441E0980144
:10298000892B09F440E009E010E06FE876E083E08D
:102990000E9472142996E4E00C948434A1E0B0E023
:1029A000E4EDF4E10C94683480918A0689832091E7
:1029B000B10690E041E02817190609F440E001E073
:1029C00010E09E012F5F3F4F6BE876E084E00E94AD
:1029D00072142196E4E00C948434A5E0B0E0E3EFB7
:1029E000F4E10C9465347B0101E010E09E012B5F63
:1029F0003F4F40E050E060E070E080E00E9426142D
:102A0000182F811509F447C060919B0670919C06B0
:102A100080919D0690919E060E94860BDD80643613
:102A200071058105910540F464E070E080EA96E06C
:102A30000E94A00AD81679F104E010E09E012F5FF1
:102A40003F4F40E050E060E070E081E00E942614DB
:102A5000182F64E070E080EA96E00E94A00AD81285
:102A600028C0111531F10E94660B60939B0670938C
:102A70009C0680939D0690939E0689819A81AB81E6
:102A8000BC818093970690939806A0939906B09383
:102A90009A0681E00FC08091A0069091A106A091B6
:102AA000A206B091A30689839A83AB83BC831111DC
:102AB000E4CF80E040919706509198066091990686
:102AC00070919A06F7014083518362837383259640
:102AD000E7E00C948134A4E0B0E0E1E7F5E10C9488
:102AE0006834609193067091940680919506909158
:102AF00096060E94860B11E06436710581059105EA
:102B000020F10E94810DDC01CB010296A11DB11DB7
:102B100089839A83AB83BC8300E010E020E030E03F
:102B200044E050E0BE016F5F7F4F82E00E942614B8
:102B3000182F811551F00E94660B609393067093D5
:102B400094068093950690939606812F2496E4E050
:102B50000C948434A5E0B0E0E0EBF5E10C94623431
:102B60008D83E62E5A01F22E6801809189068A3003
:102B700028F080E02596EAE00C947E348D8189303F
:102B8000C4F319828A836B832C8363E070E0CE01E7
:102B900002960E94A00A8983E0924601F0925901B0
:102BA00000E010E020E030E044E050E0BE016F5F64
:102BB0007F4F85E00E9426148115D9F24E2D50E0FA
:102BC00020E030E0B50186E00E942614811589F2EC
:102BD00020E030E041E050E0BE016B5F7F4F87E0D6
:102BE0000E942614811529F20F2D10E0960140E075
:102BF00050E060E070E088E00E942614BBCF81E0E6
:102C00008093CA0348E050E068E170E087E897E00D
:102C10000E94FF341092CA0308950E94DD090E94A9
:102C2000FF1580918707982F9370911529F060E028
:102C3000869586950E94E90908950F931F93CF9377
:102C4000C82F0E94A006982F81E0963009F080E0FE
:102C50000E94720B8C2F90E0A0E0B0E0AC01BD01AF
:102C6000F4E07695679557954795FA95D1F7411514
:102C700051056105710521F5AC01BD0180E08A01B6
:102C80009B01E2E03695279517950795EA95D1F7D0
:102C9000011511052105310519F08E5FB901A80153
:102CA0007695679557954795480F463029F14730F7
:102CB00069F1443039F04530A9F00E940D160DC07D
:102CC00084E0DDCF60E081E00E94E90920E040E897
:102CD0006FEF8FEB90E00E941D0A8C2FCF911F9118
:102CE0000F91089560E081E00E94E90920E040E84A
:102CF0006FEF80E090E0EFCF60E081E00E94E909B3
:102D000020E040E86FEF80E890E0E5CF60E081E010
:102D10000E94E90920E040E86FEF85E590E0DBCF15
:102D20000E941D1680930D08089521E030E001C037
:102D3000220F8A95EAF780910D08822B0E94901647
:102D4000089521E030E0A90102C0440F551F8A9583
:102D5000E2F7CA01809590910D0889230E94901690
:102D60000895909191078095892380939107282F4A
:102D7000277021110DC0891759F09091930792FF88
:102D800007C08695869586950E94A1161092910798
:102D900008959091930792FB222720F9281779F044
:102DA00080FB92F99093930760919207709193073B
:102DB00084E090E00E94513582E00E94B1160895AF
:102DC000A0E0B0E0E6EEF6E10C9464346C017B0127
:102DD00064E670E088E70E9493318C01E601EC0C18
:102DE000FD1C17FD0BC0FE01849164E670E00E949B
:102DF00002328C012196CE15DF0599F70E948732A9
:102E000081E00115110509F080E0CDB7DEB7E8E0FB
:102E10000C94803480910A06811569F080918A06AD
:102E2000811549F062E070E084EB90E00E94E016CA
:102E3000811110928A06089580910A068115F9F091
:102E40000E94660BDC01CB01805A9541AF4FBF4F0A
:102E500080930B0690930C06A0930D06B0930E067C
:102E600080918A0681110BC062E070E082EB90E0F5
:102E70000E94E016811519F081E080938A0608957A
:102E8000CF93DF93282F81E02A3019F02D3031F4D1
:102E900080E00E94C617DF91CF91089580910704CA
:102EA0009091080436E0FC01A8EEB2E001900D928A
:102EB0003A95E1F730EE320F343A08F458C026E084
:102EC000FC0111922A95E9F7C0910704D0910804FA
:102ED00046E050E0BE0188EE92E00E94E2349E019E
:102EE00029503440892B41F1C90145E096958795D9
:102EF0004A95E1F741E050E0BA0102C0660F771F42
:102F00008A95E2F7CB016091050470910604862B47
:102F1000972BB9016B5F7F4FE5E076956795EA9552
:102F2000E1F702C0440F551F6A95E2F7842B952BF9
:102F300090930604809305042A5F3F4F40910F064B
:102F4000642F70E0C9010E944634481B463010F4DB
:102F5000240F311D211572E0370710F020E030E01A
:102F6000275F3B4F309308042093070494CF2052EF
:102F7000330B46E0429FB001439F700D11246A5409
:102F80007F4F46E050E00E94D9349ECFCF93382F38
:102F9000E0910704F0910804E950F44020910F06F5
:102FA000622F70E0CF010E944634281B822F31151A
:102FB00061F066E00E949134C82FC15010F4CF91A7
:102FC000089580E20E944017F8CF8E0F9F2F911D29
:102FD000811522E0920710F080E090E0875F9B4F20
:102FE0009093080480930704EACFEF92FF920F9327
:102FF0001F93CF93C0E88DECE82E8AE0F82EF701FE
:1030000084910DEC1AE0811113C010E11C0F8C2F7C
:10301000CF5F0E944017C113FACF80E00E94C6170D
:10302000C03B69F7CF911F910F91FF90EF900895EA
:103030000E9440170F5F1F4FF8018491E4CF28E0F2
:1030400030E043E060E086E30E94BE300895CF9315
:10305000C82F0E941F188C2F0E9433318FE792E0F7
:103060000197F1F700C000000E944B31C82F95E096
:103070009A95F1F700000E94633185E68A95F1F791
:103080000000109213088C2FCF910895CF93DF93F7
:10309000D82FC62F0E941F188D2F80680E943331B1
:1030A0008C2F0E9433318AEB8A95F1F700C00E9481
:1030B000633183E492E00197F1F700C00000DF91F3
:1030C000CF910895682F893708F068E760938E01E3
:1030D00091E090938F0190918301911539F06150A7
:1030E000811101C062E08FE00E944618089520918E
:1030F0008E01211101C023E0082E000C990B820FD4
:10310000911D1816190614F081E090E00E946218D3
:103110000895FB0180810E9462180895CF93DF9388
:103120000E94B630269A0E941F186AE58AE30E9420
:1031300046182FEF80E792E0215080409040E1F761
:1031400000C0000082E00E94271883E00E94271838
:1031500084E00E94271885E00E94271886E00E94DC
:10316000271860E080E10E94461880E00E9427183E
:10317000D82F81E00E942718C82F0E946331D234D3
:1031800059F4C13049F4C093830162E08FE00E949A
:103190004618DF91CF91089510928301FACFACE0E9
:1031A000B0E0E5EDF8E10C945E344F835887062FCC
:1031B0006987172F7A878B879C8780918301811578
:1031C00009F44AC080911308811107C060E080E5CE
:1031D0000E94461881E0809313080E941F1880E522
:1031E0000E9433312AEB2A95F1F700C00E944B313F
:1031F0000E944B310E944B315C010E944B31812C6B
:10320000912C982E8A289B280E944B313C010E94C9
:103210004B31A12CB12CB82EA628B7280E946331BF
:1032200035E03A95F1F70000F894B40180918601F9
:10323000909187010E948705909387018093860172
:10324000B50180918801909189010E948705909332
:1032500089018093880178940E945C0D811509F49E
:1032600072C00E94660B6B017C0180910F089091E7
:103270001008A0911108B0911208A7019601281B0F
:10328000390B4A0B5B0B283031054105510508F419
:103290005AC0C0920F08D0921008E0921108F09224
:1032A00012088091910190919201A0919301B091A7
:1032B0009401C81AD90AEA0AFB0A32E3C316D104F8
:1032C000E104F10480F410928701109286011092BB
:1032D00089011092880110928B0110928A0110923C
:1032E0008D0110928C01E09090010E94110DF82E3A
:1032F000E11409F43FC01A87482FBE01695F7F4F70
:1033000086E891E00E943206D0909001E09083011F
:103310000E94110D91E0F82EF926DE1409F44DC03B
:103320004F2DBE01695F7F4F8AE891E00E9432060F
:1033300009871A8786E0FE013796ABE9B1E0019074
:103340000D928A95E1F709871A8786E0FE01379684
:10335000DE01119601900D928A95E1F729813A815B
:103360004B815C816D817E8180E090E02C96EEE067
:103370000C947A3480918801909189010E949D0576
:10338000182F80918601909187010E949D05982FAA
:10339000F11411F01195919519879A87CE0107962E
:1033A0000E94AB0509851A8510928701109286014B
:1033B0001092890110928801A7CF80918C01909181
:1033C0008D010E949D05182F80918A0190918B019B
:1033D0000E949D05982FF11411F011959195198770
:1033E0009A87CE0107960E94AB0509851A8510922F
:1033F0008B0110928A0110928D0110928C0198CF4E
:103400001F921FB61F9211248F939F93AF93BF9368
:1034100080911106811113C08091030390910403E0
:10342000A0910503B09106034196A11DB11D8093A3
:10343000030390930403A0930503B0930603BF9185
:10344000AF919F918F911F901FBE1F9018952FB71E
:10345000F8948091030390910403A0910503B09127
:1034600006032FBF0895A0E0B0E0E9E3FAE10C9471
:103470005C347C01DC0114968C91811509F489C1BE
:1034800061E0C7010E945D08EC0190939801809370
:103490009701F7018081918190939A01809399011E
:1034A000FE013497D70115968C91E533F10508F0AC
:1034B00095C0E851F64FE49120EB811511F02E2FC5
:1034C000E0EBA6EAB1E080E090E03D913E1380C0E1
:1034D0008D579E4FFC0123A3D70115968C91C834BC
:1034E000BEE7DB0709F08FC0811561F08091870787
:1034F000982F9370911509F416C10E94DD0981E09F
:103500000E94BB09F7018581811589F0C334FEE76C
:10351000DF0709F44AC108F019C1C1343EE7D307F7
:1035200009F41EC1C2349EE7D90709F437C19E01D0
:103530003A9521153F4108F011C1FE01FF27E93DF1
:10354000F10508F047C1E13DF10508F053C1D7018D
:1035500015968C91811509F472C2C137BCE7DB075F
:1035600009F45DC2C237ECE7DE0709F462C2C03776
:10357000FCE7DF0709F0B6C28090780190907901EE
:1035800080917601909177018816990609F088C19B
:1035900080918607803209F083C180E897E0EC01D2
:1035A000019628812032D9F38881811509F4E0C081
:1035B000813009F0DCC18981813009F09FC18E0121
:1035C0000E5F1F4F8A810E94A110E8012196ECCF67
:1035D00001968630910509F078CF7ECFCB34FEE797
:1035E000DF07A1F5811509F10E94271AA0E0B0E0DC
:1035F0008093750790937607A0937707B093780729
:1036000081E080937407F7018581C634FEE7DF0708
:1036100049F5811509F476CF80917F07811509F46A
:1036200090C088E20E94A1106DCF80917307811530
:1036300049F083EE94E00E94871010927307109275
:103640007407E1CF8CE20E94A110F9CFC0342EE7BD
:10365000D20789F5811549F180E90E94A11081E026
:1036600080937F07D70115968C91C734BEE7DB079F
:10367000C1F5811509F446CF82EE0E94CD0F8BE291
:1036800090E00E94401082E390E0AFE9BFE0119724
:10369000F1F700C000000197C1F78BE290E00E94B3
:1036A000871082EE0E944B102DCF81E90E94A1105D
:1036B00010927F07D7CFCA343EE7D30709F00CCF6B
:1036C000811509F10E94271AA0E0B0E080937B07E2
:1036D00090937C07A0937D07B0937E0781E0809351
:1036E0007A07F7018581C934FEE7DF0709F00ACFC1
:1036F000811509F407CF81EE0E94CD0F87E20E9469
:10370000A11081EECFCF80917907811541F082E041
:103710000E94A1161092790710927A07E2CF85E0F5
:103720000E949516F9CF10927A018C7F8160809368
:10373000870781E00E94BB0960E082E00E94E909FE
:10374000E1CE8CE191E00E949410DCCEC434AEE76F
:10375000DA0791F1C534BEE7DB07A9F1FE01EFCE30
:1037600081E391E00E94941086E090E00E94941022
:10377000809191078770811561F0D70115968C9122
:10378000811539F08091930782FF03C082E00E9487
:10379000B116CDB7DEB7E0E10C94783481E391E067
:1037A0000E94941082E292E0E1CF81E391E00E94D6
:1037B000941084E392E0DACF81E391E00E949410C8
:1037C0008FE290E0D3CF81E391E00E94941083E3F5
:1037D00092E0CCCFE7302EE7F20789F0811509F4AB
:1037E000B6CEFE57E031F10508F0B1CEEC56F94CFB
:1037F0000C94D334682F8E2F0E94CB0EA8CE0E943B
:10380000720BA5CE80E00E94621810929501B0CF95
:10381000809195015091960140918E0180FB47F96E
:10382000550F550F5C7086958370582B60E070E0E3
:103830008FE090E00E9445359BCF81E00E94771891
:1038400097CF8FEFFBCF8AE0F9CF86EFF7CF80914C
:10385000900191E089270E94720B8ACF8091950197
:10386000811104C085E08093950182CF8F5F181687
:1038700054F081E0F8CF80919501811102C083E07E
:10388000F2CF8150F4CF883070F387E0ECCF81E045
:10389000809396016DCF109296016ACF82E0F8CFA7
:1038A000909277018092760180E280938607A12C26
:1038B000B12C1092850705E817E0C0E0D0E09AE04F
:1038C000492E512C612C712CC501B401A301920128
:1038D0000E94B134605D603339F4209729F0892863
:1038E0008A288B2809F460E2D8016E938D01490182
:1038F0005A012196C530D10539F74FCE823039F4BF
:103900008E010E5F1F4F8A810E94CD0F5ECE8330E5
:1039100039F48E010E5F1F4F8A810E944B1055CEE5
:10392000843011F0219652CE2A81229680E090E0D8
:103930006AE0AE014F5F5F4F2053330B2A303105F1
:1039400058F0009709F442CEEFE9FFE03197F1F724
:1039500000C000000197F5CF689FF001699FF00D4E
:103960001124C9018E0F9F1F2981EA01E2CFE82FA0
:10397000F0E0E35BF54F9490282F26952695269549
:1039800030E0F901E35CF54FC4908770D12C082E2C
:1039900002C0D594C7940A94E2F7C0FACC24DD247F
:1039A000C0F8F901E35DF54FA490B12C082E02C0D8
:1039B000B594A7940A94E2F7A0FAAA24BB24A0F82D
:1039C000F901E35EF54F049110E002C015950795EB
:1039D0008A95E2F701701127C114D10419F081EE24
:1039E0000E94CD0FA114B10419F086EE0E94CD0FF4
:1039F000892D0E94A110A114B10419F086EE0E9435
:103A00004B10C114D10419F081EE0E944B10011526
:103A1000110509F4DBCD8CE20E94A110D7CD809175
:103A200078019091790105969093790180937801BE
:103A30009FCE80917801909179010597F5CF809183
:103A40000E088272FE01E052F847E531F10508F0F8
:103A50005EC0EC55F94C0C94D3348091870791E00B
:103A600089278093870710927A0181E00E94BB0921
:103A70007FCE42E15AE066E07AE00E94990A78CE71
:103A800046E05AE062E17AE0F8CF4BE35AE060E3C7
:103A90007AE0F3CF40E35AE06BE37AE0EECF44E51F
:103AA0005AE066E47AE0E9CF46E45AE064E57AE079
:103AB000E4CF40E75AE062E67AE0DFCF42E65AE040
:103AC00060E77AE0DACF4AE85AE06EE77AE0D5CFED
:103AD0004EE75AE06AE87AE0D0CF61E081E00E94E8
:103AE000E90946CECA35FCE7DF0709F485C008F0CE
:103AF0004CC0C1303CE7D30709F47CC0C3308CE72D
:103B0000D80709F471C0C115DC4709F44FC0F701AB
:103B100087819085009709F473C00E943207D82FDF
:103B2000C92FF701D580C680C2948FE0C82280914A
:103B3000910787708115E9F00D2DD114D9F0892FE7
:103B4000807F803451F080E28D0F883090F0C1107A
:103B500004C0892F807E803261F08091930782FFBC
:103B600008C082E00E94B11680919107877001E041
:103B7000811100E0EC2FE295EF70C03C08F0B8C076
:103B8000F0E0E754F94C0C94D334CB35ACE7DA07CA
:103B9000A9F180919307002482FF0394802DCC35F6
:103BA000DC4709F0B4CF0E94C916B1CF10920E08BD
:103BB0000E94C110EFEFF4E32CE0E150F040204010
:103BC000E1F700C0000087E797E790930108809332
:103BD000000888E19AE00FB6F894A89580936000F9
:103BE0000FBE90936000FFCF6FEF7FEF80E090E01B
:103BF0000E9451350E94D51081E0D5CF80E0D3CF0F
:103C0000858100811181811569F0C8010E94320807
:103C1000C82F682FC8010E94B606B8018C2F0E94D9
:103C200014087BCFC8010E94EC06C82FF6CF1C2FCA
:103C30001F70C03110F01295107FD114B9F011151A
:103C400069F080E28D0F883010F0D11109C08091A9
:103C50000E08812B80930E080E946A0F8D2F40C0A2
:103C600080919407812B80939407F6CF8D2F0E942B
:103C70004B101115E9F180E28D0F883010F0D11151
:103C800004C0812F0E942A0706C0109580919407D6
:103C90008123809394070E946A0F2AC01C2F1F70F3
:103CA000C07FC03211F01295107FD11549F0D1308C
:103CB00009F46CC0D11409F478C0C114D1F1CECF8D
:103CC0008091930782FD31C0D11469F0111539F04C
:103CD00080910E08812B80930E080E946A0F80E06D
:103CE0000E94CD0F05C080E00E944B101111C9CF7A
:103CF0000115B1F08091910780FD12C0D701159692
:103D00001C928695869586950E949516C7010E94FD
:103D1000331A809191078695869586950E94A11603
:103D200060E0C7010E945D0834CDD11499F0C11044
:103D300004C0812F0E94A70FDBCFF1E0CF12D8CFB4
:103D400080918F07912F9823191791F2812B8093DF
:103D50008F07CECFC110CCCF812F0E94BB0F909187
:103D60008F07812F8923811529F0812F8095892341
:103D700080938F0780919007912F9823911509F4D4
:103D8000B7CF1095182310939007B2CFD11429F014
:103D900026E0C21608F0ACCFCCCF35E0C31608F051
:103DA000A7CF812F0E94BB0FA3CFC114D1F3D9336A
:103DB00049F48FEF97EEA3E081509040A040E1F7E7
:103DC00000C000008D2F0E944B1092CF8C2F869543
:103DD00086958370811569F0813009F089CF8D2F28
:103DE0009C2F9370D11002C080E090E00E94400BA5
:103DF0007FCF8D2F9C2F9370D11002C080E090E078
:103E00000E941A0B75CF6D2D8D2F0E94CB0E70CF97
:103E10008C2F8370811134C0D11027C04D2F429553
:103E200046954770440F440F8D2F8F70042E01C0AC
:103E3000880F0A94EAF72D2F2071D4FF07C02FE0D6
:103E400030E001C0220F4A95EAF72095C695C69545
:103E5000C370C23081F0C33061F030910C08C130C2
:103E600039F0822B83230E94B3060E94A30D40CF1A
:103E7000832B822BF8CF822B90910C088927F3CFCC
:103E8000D11451F1C0FFF1CF4D2F429546954770A7
:103E9000440F440F8D2F8F70042E01C0880F0A9499
:103EA000EAF72D2F2071D4FF07C02FE030E001C0CA
:103EB000220F4A95EAF72095C695C695C370C23081
:103EC00089F0C33069F030910D08C13041F0822B88
:103ED00083230E949016C9CF823038F2D5CF832B2E
:103EE000822BF7CF822B90910D088927F2CFCF70CC
:103EF000D11439F08C2F0E9495168D2F0E94A70F98
:103F0000B4CF8D2F0E94BB0F8C2F0E94A116ADCF76
:103F1000D23F89F170F4D03FC9F0D13F91F0D11474
:103F200009F45CC0C11409F456C08D2F0E94CD0F56
:103F30009CCFD33F39F1D43F91F78091930782FD15
:103F40002CC08C2F8F71D11401F319C0D11481F0C2
:103F5000B5E0CB1608F089CFCF7181E090E0FC018D
:103F600001C0EE0FCA95EAF780910D088E27B1CFF8
:103F7000F6E0CF16EFCF8C2F8F71D110C6CF0E94F5
:103F8000951673CF80E0D11409F4A3CFCF7181E0EF
:103F900001C0880FCA95EAF79CCFD11489F0CF7180
:103FA0008C2F0E9495168091930782FF07C08C2F5B
:103FB000880F880F880F8360809391078C2FDFCF45
:103FC00081E00E94B11622E0C21608F44ECF82E0D2
:103FD0000E94B1164ACF8C2F8F71D1CFC11479F0C6
:103FE000D93349F43FEF87EE93E031508040904061
:103FF000E1F700C000008D2F0E944B1036CF8C2FB0
:104000008F7183CF80915807803178F48091570762
:10401000811559F0E0910907209108073091530765
:104020004091520759E02E1301C008956E2F70E0A1
:104030005E9FF0011124DF01A65FB84F14968C91AA
:104040001497811581F111968C91119783132BC0D0
:104050008C91841328C015968C911597811123C0DB
:1040600012968D919C91A0915407B09155078A1B8F
:104070009B0BA0917801B09179018A179B0798F466
:10408000809158078F70806180935807E05FF84FE8
:1040900080818F708061808382E597E00E94331A6F
:1040A0000E9420070895FB013196E770BCCFAFE076
:1040B000B0E0EDE5F0E20C945F348C0186E0F801AD
:1040C000DE011A9601900D928A95E1F7D8011596B6
:1040D000FC9015971496CC9082E5882E87E0982E58
:1040E00070905607711020C0C114D9F0F11409F472
:1040F0005CC1C8010E949708811509F456C189E086
:10410000F801D40101900D928A95E1F7B1E0CB124C
:1041100006C080915207909153070E9488080E9420
:104120000220FF24F39442C0F801E080A280B38013
:10413000D090570780915407909155079501281BFF
:10414000390BC9012091780130917901D11409F41A
:10415000F1C08217930708F0C0C0C11411F3909109
:104160005307C18080915807803108F06DC0C91293
:1041700022C0909152079E111EC040915907509144
:104180005A072781308542175307A9F4F1104BC015
:104190008F7080618093580782E597E00E94331A00
:1041A00080915807D80116968C93F12C8F2D2F965D
:1041B000EDE00C947B34F11036C040E06C2D8E2D78
:1041C0000E94F20C40E06C2D8E2D0E94F20CF82E15
:1041D0008111EBCF8A859B850E948808292F229523
:1041E0002F70903450F49F70223080F0911591F030
:1041F000F8019681903170F4D9CF2A5F2F70223068
:1042000068F0C8010E94331AFD2CD0CF911511F02F
:10421000811561F2805E883048F2F3CF803F30F242
:10422000815F8330F9CF8091580781608093580770
:1042300082E597E00E94331A89E0E2E5F7E0DF01CA
:104240001D928A95E9F7B1CFC9121CC0909152070F
:104250009E1118C04091590750915A072781308507
:104260004217530779F4F1100DC08683C8010E94EC
:10427000331A89E0F801A2E5B7E001900D928A9522
:10428000E1F74FCFC8010E949708811509F48DC04E
:10429000F11409F48AC0809158078032A8F0209167
:1042A0005207309153073A832983BC82AB827D82C7
:1042B0001E828F838091590790915A07998788872A
:1042C000CE0101960E94331A89E0F801A2E5B7E019
:1042D00001900D928A95E1F722CF809158078031A5
:1042E00038F482E597E00E94331A89E0D401A8CF20
:1042F000C11409F416CF2091530791812913C2CF1D
:10430000909152079E11BECF4091590750915A0784
:10431000278130854217530709F0B4CFF110B2CF8F
:104320008683C8010E94331A89E0D4011D928A95C0
:10433000E9F7F7CE82179307C0F6C11409F4F1CE5E
:10434000F11499F1309153072181321324C0209147
:1043500052072E1120C04091590750915A072781CA
:10436000308542175307B9F48837910508F081CF9B
:104370008091580780FD7DCF803108F47ACF868305
:10438000982F907F903F09F471CF982F907F905F86
:104390008F70892B6ACFC8010E949708811194CF32
:1043A00080915807816080935807C8010E94331A92
:1043B000B8CEA2E1B0E0EFEDF1E20C9468340A87E8
:1043C0001B872C873D874E875F87688B798B8A8B0D
:1043D000CE010A960E945720811128C0209108071B
:1043E0003091090789E0FE013A96DE0111960190AD
:1043F0000D928A95E1F78E858115C1F0822F90E0AC
:1044000001968770992738171906D9F099E0929F7D
:10441000D0011124A65FB84FFE01319601900D9294
:104420009A95E1F7809308070E94200719E0809190
:10443000090790910807891314C06296E4E00C9470
:10444000843410920E080E94C11010920807109236
:10445000090789E0E2E5F7E0DF011D928A95E9F7B7
:10446000E5CF189FC0011124865F984F0E94572006
:10447000811519F38091090790E0019687709927BB
:1044800080930907D4CFEF92FF920F931F93CF939E
:10449000DF9380910908E0910B03CDE0811131C0D9
:1044A000CDB7DEB7E6E00C948234D1E0DE0FD093D6
:1044B0000B03EE2EF12CCE9FF0011124EF55F84F97
:1044C00084818115E9F087819085892B21F481858C
:1044D0009285019659F400811181228133814481B2
:1044E00055816681778180850E94D921CE9DF0011A
:1044F000CF9DF00D1124EF55F84F148210929407C0
:10450000ED2F80910908E81780F2109209081092A7
:104510000B03C6CFA0E0B0E0E0E9F2E20C945A341D
:10452000C091A00797E0F92E01E010E02DE0222EC7
:10453000EE24E39480919F078C1309C00E944322CC
:104540000E94DB0ACDB7DEB7E2E10C947634D0E00E
:10455000FE01EE0FFF1FEB56F84F80819181F89E10
:10456000B001F99E700D112465587E4FFB01248126
:1045700021115DC030900908A1EAB7E040E050E0A9
:10458000612C431508F051C01B96AD90BC901C9750
:10459000FB018080918044244A9455245A94712CC4
:1045A000272D30E0F401E70DF11DE70DF11DC59059
:1045B000D590AC14BD0409F09201C114D10419F0D6
:1045C00073942901EDCF2F3F3207B9F1F80102C0F2
:1045D000EE0FFF1F2A95E2F76E2A9801072C02C002
:1045E000220F331F0A94E2F7215031096216130695
:1045F00009F5249EF001259EF00D1124EF55F84F8A
:10460000F89ED001F99EB00D1124A558BE4F129608
:104610002D913C9113973087278324E024831082C7
:104620001182928781871596EC920E94EE0A21965C
:10463000C37080CF14961C9214974F5F5F4F1D96E6
:10464000A0CF10920B0810920A081092820180915C
:104650009F078093A0070E94DB0A0E9443220895CF
:104660009C014FB7F8948091030390910403A091AB
:104670000503B09106034FBF821B930B0895A8E179
:10468000B0E0E5E4F3E20C945A344B8B5C8B6D8B19
:104690007E8B8F8BF92E988F992E91111092940703
:1046A000188A198A1A8A86E0FE017396DE011A9624
:1046B00001900D928A95E1F7EF88E11491F0EE8672
:1046C000FF8661E0CE010A960E945D086C0180358C
:1046D0002CE7920799F4911409F48BC181E080933F
:1046E0008201EE86FF860A851B852C853D85A70104
:1046F000688979898A890E94D9218EC081359C4731
:1047000031F4911409F475C10E942123EACF82E5A6
:10471000C8168CE7D80609F06CC1911409F469C178
:10472000809182018111F0CFD9CFAFEFAA16BA06DE
:1047300009F47DC160917F0110918201611110E047
:104740008090800180918101911409F4E5C01115D8
:1047500009F4E2C0811017C041E050E00A2C01C00A
:10476000440F0A94EAF7842B8093810180919D077E
:1047700090919E078436910530F484E690E0909302
:104780009E0780939D0781E090E002C0880F991FEB
:104790002A95E2F70197209181012817190671F4F3
:1047A00080910A0890910B080097D1F10E94302364
:1047B00085369105A8F181E080937F010E94271A38
:1047C00090930B0880930A0880910908883020F59F
:1047D00091E0980F9093090899E0FE013A96DE0166
:1047E000119601900D929A95E1F7ED82FE82BDE05F
:1047F0008B9FC00111248F55984F29E0FE013196FF
:10480000DC0101900D922A95E1F72FEF3FEFFC01BB
:1048100032872187D486C3866896E2E10C94763489
:104820007090A00790909F07A0907B01B0907C01B2
:10483000872CA0E0B0E057E0552E662463947910F1
:1048400015C08092A007AB57B14009F4B7CF892DAE
:1048500090E0FC01EE0FFF1FEB56F84F1182108223
:1048600001968370992780939F07A8CF272D30E06A
:10487000F901EE0FFF1FEB56F84F40815181549E16
:10488000C001559E900D112485589E4FFC0100815A
:104890001181212C412C312CF801E30DF11DE30D88
:1048A000F11D459155914115510589F5211489F165
:1048B000ABE7B1E0431408F0DC0114966C92149756
:1048C000F1E0AB37BF0709F4BCCF781007C08A17F7
:1048D0009B0721F48394482D4370842E2F5F3F4F14
:1048E000822F8370782EABCFE1E04617570709F08F
:1048F000E0E02E2A4394F501E40DF11DE40DF11DD5
:10490000659175916115710579F73394C5CF412C87
:10491000F2CFA0E0B0E0E2CF90E0811031C041E002
:1049200050E0DA0102C0AA0FBB1F2A95E2F79D01F1
:104930002150310982179307E1F010E081E090E007
:104940000A2C01C0880F0A94EAF7809590918101A2
:10495000892380938101911068C09091A007809174
:104960009F07981709F465C00E948A22111154CF3D
:10497000B8CE611519F380E090E00E94EE0ADDCF19
:10498000AC010A2C02C0559547950A94E2F79C01A8
:104990002150310982239323892B41F540FF26C002
:1049A00080917D0190917E01892BE1F087E0FE01ED
:1049B0003196DF011D928A95E9F70E94271A9C0122
:1049C0008B839C8384E08D8390917D0180917E0117
:1049D000792F9887898709811A8144E05E816F81E8
:1049E0000E94D92110928001182DA8CF142F117088
:1049F000A5CF40917B0150917C019FEF8FEF20E08C
:104A0000A22EB12CFA01E20FF11DE20FF11D65910A
:104A10007591C616D70611F0A92EB82E672B09F48A
:104A200084CE2F5F9A2D8B2DEBCF1111C7CE10E0C6
:104A300094CF0E94432210920B0810920A080E9401
:104A4000DB0A94CFA6E0B0E0E8E2F5E20C9468342B
:104A50000E94271A8C018091FC069091FD06801718
:104A6000910779F019821A820E94271ABC014981A4
:104A70005A8180E090E00E943F231093FD0600934E
:104A8000FC062696E4E00C948434A8E0B0E0EBE465
:104A9000F5E20C945A344090BF035090C0036090EC
:104AA000C1037090C2030E945C0D811509F44BC0D4
:104AB000C301B2010E94860B4B015C010E94810D73
:104AC0006093BF037093C0038093C1039093C203AC
:104AD000A0914B06EBE4F6E04A2F50E044244A94C0
:104AE000542C612C712C481859086A087B08A513AE
:104AF00033C040934B0620918707122F1370111576
:104B000019F0122F1695169530917A01323009F46A
:104B10004BC290F5311137C010920A016093C60361
:104B20007093C7038093C8039093C90389E2EBE4B1
:104B3000F6E0ACEDB3E001900D928A95E1F781E0EB
:104B400080937A011CC00E94810D4B015C01841886
:104B50009508A608B708B2CF218D328D42165306AC
:104B60006104710420F441505F5F3296C0CF280D7C
:104B7000391D328F218FF8CF333009F41EC22896A9
:104B8000E2E10C94763480910901181328C0237057
:104B90004091080150E081E02417150609F480E0F7
:104BA00080930C0180918C0790910B01981739F03C
:104BB00080930B0140E060E080E00E94C409123065
:104BC00009F478C070F4111111C080910C018115A5
:104BD00059F040E060E080E00E94C40905C081E037
:104BE000DFCF133009F421C180E037C020910A01E2
:104BF0008AE0289F802D11248983082F065F0133C6
:104C000008F000E30E94110D811519F0093108F038
:104C100008E10E94110D811105C03981383110F46D
:104C200088E18983609188077091890780918A075C
:104C30000E94EE08F62EE72ED82EB981AB2FB0E0F9
:104C4000BD83AC83FC81F017F0F00E94110D81153B
:104C500009F4E6C081E0083138F690910A019F5FBF
:104C600090930A0181119CC182E080937A01809126
:104C70000C01811195C1111509F49DC10E94110DFE
:104C80000E94110D7CCFEC81FD81E55AFD4F8081A2
:104C900090910B018923811539F02D2D4F2D6E2D0B
:104CA0008C819D810E94C109EC81FD813196FD833B
:104CB000EC83C8CF80900A018AE0889E802C112462
:104CC0000AE0080D013308F000E30E94110D811580
:104CD00019F0093108F008E10E94110D811105C099
:104CE00028E1821610F468E1862E80910C0181156E
:104CF00061F040E060E080E00E94C409EBE1F6E092
:104D000080E3DF011D928A95E9F780910A01811104
:104D10001BC08091C4039091C5030E9430238C83F3
:104D20009D8381E0EC81FD81799708F480E0809398
:104D3000C3032C813D812931310530F00E94271AAF
:104D40009093C5038093C403C12CD12C612C45E5FD
:104D5000442E5AEA552E33243394760136E0732ECE
:104D6000F701E553FE4F30813983381508F445C00B
:104D7000301708F042C0832F90E09D838C83FC01A4
:104D8000E55AFD4F808190910B018923811509F42B
:104D900033C0D701A55EB94F5D019C90692D242DCC
:104DA000621B08F460E070918907252D392D230FCF
:104DB00008F42FEF30918A07822F880F820F8E5FC1
:104DC000282F239F212D1124822F352D361B632F51
:104DD0000E94EE08462F672F282F8C819D810E940C
:104DE000C1098091C303811539F0292D332D231B6F
:104DF00008F420E0D5012C9363947A94BFEFEB1A6A
:104E0000FB0A7110ADCFEAE2CE16D10409F41DCF32
:104E1000F6E0CF0ED11C2AE0621608F49ECF15CF23
:104E200081E0003309F019CFDFCE30910A018AE02A
:104E3000389F802D11248A83865F8983813310F007
:104E400080E389830E94110D811529F099819931A0
:104E500010F0A8E1A9830E94110D811105C0BA814B
:104E6000B83110F4E8E1EA832090DC033A81232F83
:104E700030E038872F83C901880F991FDC01A553C3
:104E8000BE4F6D01412C512CAF81B981AB1748F059
:104E90000E94110D811509F47FC081E0E981E8319C
:104EA000DBCEEF81F885E55AFD4F808190910B01B3
:104EB0008923811549F1B0918807BA83E091890768
:104EC000EB83F0918A07FE8325EF33E03D832C834B
:104ED0008CEDA82E83E0B82E312C8A2DECEDF3E07A
:104EE0008E1B8215D0F0232D3E81239F212D11246E
:104EF000822F6A817B810E94EE08462F672F282F20
:104F00008F8198850E94C1098F8198850196988725
:104F10008F8392E0C90ED11CB7CFD601D0968C906A
:104F2000D097F5018181881A9908D1966C90818576
:104F3000681A7708889C9001899C300D300D1124E7
:104F4000669CC001679C900D900D1124820F931FE9
:104F50000E947209082F20918B0731E0230F08F47B
:104F60002FEFAC81BD818D919D91BD83AC8372018A
:104F7000829FE12C929FE00CF11C11249301A4016B
:104F80006A817B81832D0E94A2096A837B83382EEC
:104F9000BFEFAB1ABB0AA1CF81E0F981F03342CF5A
:104FA000111509F4ECCD6ACE1093090123702093FA
:104FB00008010E94B40D83E0C3CD8091CA0381151E
:104FC00051F048E050E068E170E087E897E00E9427
:104FD00023351092CA038090C6039090C703A09017
:104FE000C803B090C9030E945C0D811581F0C50112
:104FF000B4010E94860B6B017C0120E1C216D10432
:10500000E104F10408F4BBCD10927A01B8CD0E94FE
:10501000810D6B017C01C818D908EA08FB08EDCFA7
:105020002F923F925F926F927F928F929F92AF9258
:10503000BF92CF92DF92EF92FF920F931F93CF9385
:10504000DF9380910A068115B9F180912C0390912C
:105050002D030E943023C29780F00E94271A90935C
:105060002D0380932C0389E094E0909308048093AF
:1050700007040E945C0D0E94F51780910504909131
:105080000604892B59F580918A068115A9F00E94A2
:10509000660B00910B0610910C0620910D063091C5
:1050A0000E06601B710B820B930B6F3F7F4F8F4F70
:1050B0009F4710F40E940A17DF91CF911F910F9123
:1050C000FF90EF90DF90CF90BF90AF909F908F9028
:1050D0007F906F905F903F902F90089580910A0687
:1050E000811589F2809109068111CDCF0E941C178C
:1050F00020910504309106042115310521F210E0BC
:1051000041E050E0812F90E01A01012E02C0220CF4
:10511000331C0A94E2F7B10162237323672B11F465
:105120001F5FF0CF2091100620FF94C0912F990FA0
:10513000990F990F37E0390F80E023E09093030136
:1051400080930601309304012093070124E630E0A8
:1051500047E050E061E071E088E70E943232892B3D
:1051600009F091CF20E2129FA00111248091100636
:1051700080FF7CC0ECE0F3E080E2DF011D928A95C5
:10518000E9F7A5EBB1E001EB11E089EBC82E81E076
:10519000D82E97E0592E772473948D91E8012991A8
:1051A0008E01240F352F311D275F3B4FE82FF0E094
:1051B000E45FFC4F80E090E0652C681A872C082E95
:1051C00001C0880C0A94EAF77901A12CE701B99093
:1051D0007E01B820662D6A19677070E0DB2D062EFF
:1051E00001C0DD0F0A94EAF79D2E71956195710952
:1051F0006770772701C0B6946A95EAF79B286081AB
:10520000962A9082A39468E0A612E0CF0196319688
:105210008830910589F6CA16DB0609F0BECF04E690
:1052200010E020E230E04CE053E060E488E70E94C8
:105230005A32892B09F027CFE101C095D095809192
:105240000504909106048C239D239093060480937B
:10525000050419CF9695879596958795282F912FB8
:105260009295990F90763FE1390F68CF475F5B4F7A
:1052700004E610E020E230E0D8CFACE0B0E0E3E4B8
:10528000F9E20C945D34FE01319688E0DF011D9255
:105290008A95E9F789EBE82E81E0F82E8F019DEBE6
:1052A000C92E91E0D92E3F01AA24A394B12C33EC4E
:1052B000832E31E0932EF70181917F018F3F09F416
:1052C0003EC0F894E82FE295EF70F0E021A18F70D6
:1052D000A50102C0440F551F8A95E2F7CA01922F1B
:1052E000982B91A392A18095892382A3789400C0E2
:1052F000EDEBF1E031E0512C21912F3F79F0A22F1D
:10530000A295AF70A05EB0E08C9190E02F7002C0CB
:10531000959587952A95E2F780FF27C080E0582A67
:10532000330F8E169F0641F7F70182918F3F11F0E0
:105330000E94CC0850EA5A95F1F7D8015C920F5FB1
:105340001F4FCE14DF0409F0B6CF48E050E0B301A0
:1053500082ED93E00E94E234892B49F48091E702C8
:105360008115B1F10091DB0315C0832FD8CF88E000
:10537000F301A2EDB3E001900D928A95E1F700915F
:10538000DB0381E08093E7020E94271A9093E602F4
:105390008093E5028091E5029091E6020E9430231D
:1053A0000597B0F010E00D5E194F44E050E062ED5B
:1053B00073E0C8010E94E234892B41F084E0E2ED01
:1053C000F3E0D80101900D928A95E1F71092E7027F
:1053D0000E945C0D0091DB0310E00D5E194F8115FA
:1053E00009F4A8C07E01B9E0EB0EF11C84E0F701DE
:1053F00011928A95E9F7809189068A3008F065C094
:105400004DEE54E1B701C8010E94400E811509F428
:105410007FC04BE655E1B701C8010E94400E8115DF
:1054200009F476C045EA54E1B701C8010E94400E74
:10543000811509F46DC04EEC54E1B701C8010E941A
:10544000400E811509F464C0109289068091DA0338
:1054500090E044E050E0B7018D5E994F0E94E23445
:1054600021E02093E402892B09F044C08091740765
:10547000811591F080917507909176070E943023F5
:105480008937910548F083EE94E00E94401081E056
:10549000809373071092740780917A07811589F0C1
:1054A00080917B0790917C070E943023893791057A
:1054B00040F082E00E94951681E080937907109277
:1054C0007A072C96EFE00C9479348091E202909167
:1054D000E3020E943023843F914008F091CF8091F5
:1054E000E402811519F284E0D7011D928A95E9F74B
:1054F0001092E402E091DA03F0E0ED5EF94F898565
:105500009A85AB85BC8580839183A283B383AECF1C
:10551000809189068F3F39F40E94271A9093E30205
:105520008093E202DCCF8F5F809389068A3008F493
:105530008DCFF2CFF80180819181A281B3818093D8
:10554000A0069093A106A093A206B093A30664E0E0
:1055500070E080EA96E00E94A00A80939F06C090C7
:10556000A406D090A506E090A606F090A70680912C
:10557000DE029091DF02A091E002B091E102C81634
:10558000D906EA06FB06D1F0C092DE02D092DF0215
:10559000E092E002F092E1020E945C0D81110EC0E7
:1055A0000E94660BC61AD70AE80AF90AC092F806E2
:1055B000D092F906E092FA06F092FB0688E0E8EA5B
:1055C000F6E0A7E8B7E001900D928A95E1F78091A7
:1055D000B106811519F00E941C1773CF0E940A179B
:1055E00070CFCDB7DEB76B970FB6F894DEBF0FBEA6
:1055F000CDBF85B7806885BF85B7806885BF84B714
:10560000877F84BF0FB6F894A89580916000886169
:1056100080936000109260000FBE80E890E00FB6AB
:10562000F89480936100909361000FBE8AEC98E03B
:105630009093D5028093D4020E94480C0E94970C4C
:105640008091E20084608093E20078948091F60675
:10565000811599F08091E9001091EC008F701795F9
:1056600011271795182B1092E9008091E80083FD0F
:105670000E94ED101F701093E90082E084BD93E05A
:1056800095BD9AEF97BD80936E001092F806109228
:10569000F9061092FA061092FB060E94110D8093F3
:1056A0000D010E945C0D81110E94E43280910D0178
:1056B00080910D0191E08927880F880F8093DB038B
:1056C00094E0981B9093DA0384EF0E94CC0885EF56
:1056D0000E94CC0886EF0E94CC0887EF0E94CC087D
:1056E0000DEB11E0D8018D918D018F3F11F00E94DB
:1056F000CC08B1E0033C1B07A9F788E0E3E1F6E042
:10570000DF01282F1D922A95E9F7E2EDF3E0DF0192
:105710001D928A95E9F780E090E00E941D35863E53
:105720009E4F11F00E94BA1382E090E00E940F3564
:105730008093740684E090E00E941D359093930757
:105740008093920783E090E00E940F350E94B30699
:1057500080910D080E941D160E94960A1092DC038B
:1057600040E150E06FEF70E085EF93E00E94F83485
:1057700010924B0640E150E06FEF70E084E696E057
:105780000E94F83480E090E00E941D35863E9E4FD6
:1057900021F00E94BA130E949F130E94FF1580916E
:1057A0008707843010F40E949F130E945C0D91E0E3
:1057B0008927880F8093100680E880930F060E9447
:1057C0008D316BE070E08DED96E00E94E016811562
:1057D00009F43FC08091100665E070E081FDD1C101
:1057E00088ED96E00E94E016811599F16DE070E079
:1057F00086EC96E00E94E016811559F10E94660B36
:10580000DC01CB01805A9541AF4FBF4F80930B060F
:1058100090930C06A0930D06B0930E06E9E0F4E019
:1058200080E092E0DF019C011D9221503040E1F7C1
:10583000F0930804E09307048FEF9FEF9093060422
:105840008093050481E080930A0680938A06109273
:1058500009060E945C0D811102C00E94E7320E947D
:105860008E180E945C0D81112EC087E796E0909300
:1058700065018093640127E130E03093600120935B
:105880005F0187E390E090936301809362014CE7AE
:1058900056E050936D0140936C0130936801209362
:1058A000670190936B0180936A0149E858E1509336
:1058B0007501409374013093700120936F019093B0
:1058C00073018093720180E090E00E941D35863E56
:1058D0009E4FB9F48FE090E00E9417358B01862F20
:1058E0008F770E94621807FB002700F9812F8370D1
:1058F000880F802B80939501169516951370109341
:1059000096010E940D168FE09EE70E9494108EE093
:1059100091E09093FF068093FE068091F606853015
:1059200059F48091F606853009F42EC110920E08C4
:105930000E94C1100E94A30D0E943D29A5E7B6E078
:10594000BE87AD87E3E1F6E0FA8BE98B23EC31E02B
:10595000388B2F87B9019F01FD019191D9018D915C
:105960009D01DB014D91BD018423B6E0ED37FB07BE
:1059700009F467C1981789F30E945C0D8F8B1C8610
:105980001B86E12CE989FA89F190FA8BE98BAF85C6
:10599000B8898D91B88BAF87F822ED85FE8581910E
:1059A000FE87ED878F1509F4DFC08F258E8BAB84C2
:1059B000BC84D12CCC24C3948E898C21811509F40C
:1059C000C8C02C2C2F20FF89F115A1F0D982EA82C2
:1059D0000E94271A9C838B8321E02D8391E0211064
:1059E00001C090E09E8349815A816B817C818D81C9
:1059F0000E943F23211439F0F501E553FE4F8081C9
:105A00008F3F09F059C1312C032D10E080914B06D6
:105A1000830D9927991F09976CF1E8E08E2E912C40
:105A2000801A910AB801645B794FA4018CE496E076
:105A30000E94EF34B8016C5A794FA40184E596E0D6
:105A40000E94EF34A401440F551FB801660F771F61
:105A50006C59794F84E696E00E94EF34B801645A9D
:105A6000794FA4018CE596E00E94EF3488E0831919
:105A700080934B06311429F140914B063B89832FCB
:105A800090E0242F30E0F901E55BF94FDC01AA0F2B
:105A9000BB1FA550BE4F5C915183880F991FDC013D
:105AA000A553BE4FD1968C9181875B89518BF901AB
:105AB000EE0FFF1FE55BF94F128E118E4F5F409383
:105AC0004B06211409F445C0809187078C7F8830EC
:105AD00009F03FC0F501E553FE4F80818F3F09F487
